{
  "_format": "hh-sol-artifact-1",
  "contractName": "CErc20Delegate",
  "sourceName": "contracts/CErc20Delegate.sol",
  "abi": [
    {
      "inputs": [],
      "stateMutability": "nonpayable",
      "type": "constructor"
    },
    {
      "inputs": [],
      "name": "AcceptAdminPendingAdminCheck",
      "type": "error"
    },
    {
      "inputs": [
        {
          "internalType": "uint256",
          "name": "actualAddAmount",
          "type": "uint256"
        }
      ],
      "name": "AddReservesFactorFreshCheck",
      "type": "error"
    },
    {
      "inputs": [],
      "name": "BorrowCashNotAvailable",
      "type": "error"
    },
    {
      "inputs": [
        {
          "internalType": "uint256",
          "name": "errorCode",
          "type": "uint256"
        }
      ],
      "name": "BorrowComptrollerRejection",
      "type": "error"
    },
    {
      "inputs": [],
      "name": "BorrowFreshnessCheck",
      "type": "error"
    },
    {
      "inputs": [
        {
          "internalType": "uint256",
          "name": "errorCode",
          "type": "uint256"
        }
      ],
      "name": "LiquidateAccrueBorrowInterestFailed",
      "type": "error"
    },
    {
      "inputs": [
        {
          "internalType": "uint256",
          "name": "errorCode",
          "type": "uint256"
        }
      ],
      "name": "LiquidateAccrueCollateralInterestFailed",
      "type": "error"
    },
    {
      "inputs": [],
      "name": "LiquidateCloseAmountIsUintMax",
      "type": "error"
    },
    {
      "inputs": [],
      "name": "LiquidateCloseAmountIsZero",
      "type": "error"
    },
    {
      "inputs": [],
      "name": "LiquidateCollateralFreshnessCheck",
      "type": "error"
    },
    {
      "inputs": [
        {
          "internalType": "uint256",
          "name": "errorCode",
          "type": "uint256"
        }
      ],
      "name": "LiquidateComptrollerRejection",
      "type": "error"
    },
    {
      "inputs": [],
      "name": "LiquidateFreshnessCheck",
      "type": "error"
    },
    {
      "inputs": [],
      "name": "LiquidateLiquidatorIsBorrower",
      "type": "error"
    },
    {
      "inputs": [
        {
          "internalType": "uint256",
          "name": "errorCode",
          "type": "uint256"
        }
      ],
      "name": "LiquidateRepayBorrowFreshFailed",
      "type": "error"
    },
    {
      "inputs": [
        {
          "internalType": "uint256",
          "name": "errorCode",
          "type": "uint256"
        }
      ],
      "name": "LiquidateSeizeComptrollerRejection",
      "type": "error"
    },
    {
      "inputs": [],
      "name": "LiquidateSeizeLiquidatorIsBorrower",
      "type": "error"
    },
    {
      "inputs": [
        {
          "internalType": "uint256",
          "name": "errorCode",
          "type": "uint256"
        }
      ],
      "name": "MintComptrollerRejection",
      "type": "error"
    },
    {
      "inputs": [],
      "name": "MintFreshnessCheck",
      "type": "error"
    },
    {
      "inputs": [
        {
          "internalType": "uint256",
          "name": "errorCode",
          "type": "uint256"
        }
      ],
      "name": "RedeemComptrollerRejection",
      "type": "error"
    },
    {
      "inputs": [],
      "name": "RedeemFreshnessCheck",
      "type": "error"
    },
    {
      "inputs": [],
      "name": "RedeemTransferOutNotPossible",
      "type": "error"
    },
    {
      "inputs": [],
      "name": "ReduceReservesAdminCheck",
      "type": "error"
    },
    {
      "inputs": [],
      "name": "ReduceReservesCashNotAvailable",
      "type": "error"
    },
    {
      "inputs": [],
      "name": "ReduceReservesCashValidation",
      "type": "error"
    },
    {
      "inputs": [],
      "name": "ReduceReservesFreshCheck",
      "type": "error"
    },
    {
      "inputs": [
        {
          "internalType": "uint256",
          "name": "errorCode",
          "type": "uint256"
        }
      ],
      "name": "RepayBorrowComptrollerRejection",
      "type": "error"
    },
    {
      "inputs": [],
      "name": "RepayBorrowFreshnessCheck",
      "type": "error"
    },
    {
      "inputs": [],
      "name": "SetComptrollerOwnerCheck",
      "type": "error"
    },
    {
      "inputs": [],
      "name": "SetInterestRateModelFreshCheck",
      "type": "error"
    },
    {
      "inputs": [],
      "name": "SetInterestRateModelOwnerCheck",
      "type": "error"
    },
    {
      "inputs": [],
      "name": "SetPendingAdminOwnerCheck",
      "type": "error"
    },
    {
      "inputs": [],
      "name": "SetReserveFactorAdminCheck",
      "type": "error"
    },
    {
      "inputs": [],
      "name": "SetReserveFactorBoundsCheck",
      "type": "error"
    },
    {
      "inputs": [],
      "name": "SetReserveFactorFreshCheck",
      "type": "error"
    },
    {
      "inputs": [
        {
          "internalType": "uint256",
          "name": "errorCode",
          "type": "uint256"
        }
      ],
      "name": "TransferComptrollerRejection",
      "type": "error"
    },
    {
      "inputs": [],
      "name": "TransferNotAllowed",
      "type": "error"
    },
    {
      "inputs": [],
      "name": "TransferNotEnough",
      "type": "error"
    },
    {
      "inputs": [],
      "name": "TransferTooMuch",
      "type": "error"
    },
    {
      "anonymous": false,
      "inputs": [
        {
          "indexed": false,
          "internalType": "uint256",
          "name": "cashPrior",
          "type": "uint256"
        },
        {
          "indexed": false,
          "internalType": "uint256",
          "name": "interestAccumulated",
          "type": "uint256"
        },
        {
          "indexed": false,
          "internalType": "uint256",
          "name": "borrowIndex",
          "type": "uint256"
        },
        {
          "indexed": false,
          "internalType": "uint256",
          "name": "totalBorrows",
          "type": "uint256"
        }
      ],
      "name": "AccrueInterest",
      "type": "event"
    },
    {
      "anonymous": false,
      "inputs": [
        {
          "indexed": true,
          "internalType": "address",
          "name": "owner",
          "type": "address"
        },
        {
          "indexed": true,
          "internalType": "address",
          "name": "spender",
          "type": "address"
        },
        {
          "indexed": false,
          "internalType": "uint256",
          "name": "amount",
          "type": "uint256"
        }
      ],
      "name": "Approval",
      "type": "event"
    },
    {
      "anonymous": false,
      "inputs": [
        {
          "indexed": false,
          "internalType": "address",
          "name": "borrower",
          "type": "address"
        },
        {
          "indexed": false,
          "internalType": "uint256",
          "name": "borrowAmount",
          "type": "uint256"
        },
        {
          "indexed": false,
          "internalType": "uint256",
          "name": "accountBorrows",
          "type": "uint256"
        },
        {
          "indexed": false,
          "internalType": "uint256",
          "name": "totalBorrows",
          "type": "uint256"
        }
      ],
      "name": "Borrow",
      "type": "event"
    },
    {
      "anonymous": false,
      "inputs": [
        {
          "indexed": false,
          "internalType": "address",
          "name": "liquidator",
          "type": "address"
        },
        {
          "indexed": false,
          "internalType": "address",
          "name": "borrower",
          "type": "address"
        },
        {
          "indexed": false,
          "internalType": "uint256",
          "name": "repayAmount",
          "type": "uint256"
        },
        {
          "indexed": false,
          "internalType": "address",
          "name": "cTokenCollateral",
          "type": "address"
        },
        {
          "indexed": false,
          "internalType": "uint256",
          "name": "seizeTokens",
          "type": "uint256"
        }
      ],
      "name": "LiquidateBorrow",
      "type": "event"
    },
    {
      "anonymous": false,
      "inputs": [
        {
          "indexed": false,
          "internalType": "address",
          "name": "minter",
          "type": "address"
        },
        {
          "indexed": false,
          "internalType": "uint256",
          "name": "mintAmount",
          "type": "uint256"
        },
        {
          "indexed": false,
          "internalType": "uint256",
          "name": "mintTokens",
          "type": "uint256"
        }
      ],
      "name": "Mint",
      "type": "event"
    },
    {
      "anonymous": false,
      "inputs": [
        {
          "indexed": false,
          "internalType": "address",
          "name": "oldAdmin",
          "type": "address"
        },
        {
          "indexed": false,
          "internalType": "address",
          "name": "newAdmin",
          "type": "address"
        }
      ],
      "name": "NewAdmin",
      "type": "event"
    },
    {
      "anonymous": false,
      "inputs": [
        {
          "indexed": false,
          "internalType": "contract ComptrollerInterface",
          "name": "oldComptroller",
          "type": "address"
        },
        {
          "indexed": false,
          "internalType": "contract ComptrollerInterface",
          "name": "newComptroller",
          "type": "address"
        }
      ],
      "name": "NewComptroller",
      "type": "event"
    },
    {
      "anonymous": false,
      "inputs": [
        {
          "indexed": false,
          "internalType": "contract InterestRateModel",
          "name": "oldInterestRateModel",
          "type": "address"
        },
        {
          "indexed": false,
          "internalType": "contract InterestRateModel",
          "name": "newInterestRateModel",
          "type": "address"
        }
      ],
      "name": "NewMarketInterestRateModel",
      "type": "event"
    },
    {
      "anonymous": false,
      "inputs": [
        {
          "indexed": false,
          "internalType": "address",
          "name": "oldPendingAdmin",
          "type": "address"
        },
        {
          "indexed": false,
          "internalType": "address",
          "name": "newPendingAdmin",
          "type": "address"
        }
      ],
      "name": "NewPendingAdmin",
      "type": "event"
    },
    {
      "anonymous": false,
      "inputs": [
        {
          "indexed": false,
          "internalType": "uint256",
          "name": "oldReserveFactorMantissa",
          "type": "uint256"
        },
        {
          "indexed": false,
          "internalType": "uint256",
          "name": "newReserveFactorMantissa",
          "type": "uint256"
        }
      ],
      "name": "NewReserveFactor",
      "type": "event"
    },
    {
      "anonymous": false,
      "inputs": [
        {
          "indexed": false,
          "internalType": "address",
          "name": "redeemer",
          "type": "address"
        },
        {
          "indexed": false,
          "internalType": "uint256",
          "name": "redeemAmount",
          "type": "uint256"
        },
        {
          "indexed": false,
          "internalType": "uint256",
          "name": "redeemTokens",
          "type": "uint256"
        }
      ],
      "name": "Redeem",
      "type": "event"
    },
    {
      "anonymous": false,
      "inputs": [
        {
          "indexed": false,
          "internalType": "address",
          "name": "payer",
          "type": "address"
        },
        {
          "indexed": false,
          "internalType": "address",
          "name": "borrower",
          "type": "address"
        },
        {
          "indexed": false,
          "internalType": "uint256",
          "name": "repayAmount",
          "type": "uint256"
        },
        {
          "indexed": false,
          "internalType": "uint256",
          "name": "accountBorrows",
          "type": "uint256"
        },
        {
          "indexed": false,
          "internalType": "uint256",
          "name": "totalBorrows",
          "type": "uint256"
        }
      ],
      "name": "RepayBorrow",
      "type": "event"
    },
    {
      "anonymous": false,
      "inputs": [
        {
          "indexed": false,
          "internalType": "address",
          "name": "benefactor",
          "type": "address"
        },
        {
          "indexed": false,
          "internalType": "uint256",
          "name": "addAmount",
          "type": "uint256"
        },
        {
          "indexed": false,
          "internalType": "uint256",
          "name": "newTotalReserves",
          "type": "uint256"
        }
      ],
      "name": "ReservesAdded",
      "type": "event"
    },
    {
      "anonymous": false,
      "inputs": [
        {
          "indexed": false,
          "internalType": "address",
          "name": "admin",
          "type": "address"
        },
        {
          "indexed": false,
          "internalType": "uint256",
          "name": "reduceAmount",
          "type": "uint256"
        },
        {
          "indexed": false,
          "internalType": "uint256",
          "name": "newTotalReserves",
          "type": "uint256"
        }
      ],
      "name": "ReservesReduced",
      "type": "event"
    },
    {
      "anonymous": false,
      "inputs": [
        {
          "indexed": true,
          "internalType": "address",
          "name": "from",
          "type": "address"
        },
        {
          "indexed": true,
          "internalType": "address",
          "name": "to",
          "type": "address"
        },
        {
          "indexed": false,
          "internalType": "uint256",
          "name": "amount",
          "type": "uint256"
        }
      ],
      "name": "Transfer",
      "type": "event"
    },
    {
      "inputs": [],
      "name": "NO_ERROR",
      "outputs": [
        {
          "internalType": "uint256",
          "name": "",
          "type": "uint256"
        }
      ],
      "stateMutability": "view",
      "type": "function"
    },
    {
      "inputs": [],
      "name": "_acceptAdmin",
      "outputs": [
        {
          "internalType": "uint256",
          "name": "",
          "type": "uint256"
        }
      ],
      "stateMutability": "nonpayable",
      "type": "function"
    },
    {
      "inputs": [
        {
          "internalType": "uint256",
          "name": "addAmount",
          "type": "uint256"
        }
      ],
      "name": "_addReserves",
      "outputs": [
        {
          "internalType": "uint256",
          "name": "",
          "type": "uint256"
        }
      ],
      "stateMutability": "nonpayable",
      "type": "function"
    },
    {
      "inputs": [
        {
          "internalType": "bytes",
          "name": "data",
          "type": "bytes"
        }
      ],
      "name": "_becomeImplementation",
      "outputs": [],
      "stateMutability": "nonpayable",
      "type": "function"
    },
    {
      "inputs": [
        {
          "internalType": "address",
          "name": "compLikeDelegatee",
          "type": "address"
        }
      ],
      "name": "_delegateCompLikeTo",
      "outputs": [],
      "stateMutability": "nonpayable",
      "type": "function"
    },
    {
      "inputs": [
        {
          "internalType": "uint256",
          "name": "reduceAmount",
          "type": "uint256"
        }
      ],
      "name": "_reduceReserves",
      "outputs": [
        {
          "internalType": "uint256",
          "name": "",
          "type": "uint256"
        }
      ],
      "stateMutability": "nonpayable",
      "type": "function"
    },
    {
      "inputs": [],
      "name": "_resignImplementation",
      "outputs": [],
      "stateMutability": "nonpayable",
      "type": "function"
    },
    {
      "inputs": [
        {
          "internalType": "contract ComptrollerInterface",
          "name": "newComptroller",
          "type": "address"
        }
      ],
      "name": "_setComptroller",
      "outputs": [
        {
          "internalType": "uint256",
          "name": "",
          "type": "uint256"
        }
      ],
      "stateMutability": "nonpayable",
      "type": "function"
    },
    {
      "inputs": [
        {
          "internalType": "contract InterestRateModel",
          "name": "newInterestRateModel",
          "type": "address"
        }
      ],
      "name": "_setInterestRateModel",
      "outputs": [
        {
          "internalType": "uint256",
          "name": "",
          "type": "uint256"
        }
      ],
      "stateMutability": "nonpayable",
      "type": "function"
    },
    {
      "inputs": [
        {
          "internalType": "address payable",
          "name": "newPendingAdmin",
          "type": "address"
        }
      ],
      "name": "_setPendingAdmin",
      "outputs": [
        {
          "internalType": "uint256",
          "name": "",
          "type": "uint256"
        }
      ],
      "stateMutability": "nonpayable",
      "type": "function"
    },
    {
      "inputs": [
        {
          "internalType": "uint256",
          "name": "newReserveFactorMantissa",
          "type": "uint256"
        }
      ],
      "name": "_setReserveFactor",
      "outputs": [
        {
          "internalType": "uint256",
          "name": "",
          "type": "uint256"
        }
      ],
      "stateMutability": "nonpayable",
      "type": "function"
    },
    {
      "inputs": [],
      "name": "accrualBlockNumber",
      "outputs": [
        {
          "internalType": "uint256",
          "name": "",
          "type": "uint256"
        }
      ],
      "stateMutability": "view",
      "type": "function"
    },
    {
      "inputs": [],
      "name": "accrueInterest",
      "outputs": [
        {
          "internalType": "uint256",
          "name": "",
          "type": "uint256"
        }
      ],
      "stateMutability": "nonpayable",
      "type": "function"
    },
    {
      "inputs": [],
      "name": "admin",
      "outputs": [
        {
          "internalType": "address payable",
          "name": "",
          "type": "address"
        }
      ],
      "stateMutability": "view",
      "type": "function"
    },
    {
      "inputs": [
        {
          "internalType": "address",
          "name": "owner",
          "type": "address"
        },
        {
          "internalType": "address",
          "name": "spender",
          "type": "address"
        }
      ],
      "name": "allowance",
      "outputs": [
        {
          "internalType": "uint256",
          "name": "",
          "type": "uint256"
        }
      ],
      "stateMutability": "view",
      "type": "function"
    },
    {
      "inputs": [
        {
          "internalType": "address",
          "name": "spender",
          "type": "address"
        },
        {
          "internalType": "uint256",
          "name": "amount",
          "type": "uint256"
        }
      ],
      "name": "approve",
      "outputs": [
        {
          "internalType": "bool",
          "name": "",
          "type": "bool"
        }
      ],
      "stateMutability": "nonpayable",
      "type": "function"
    },
    {
      "inputs": [
        {
          "internalType": "address",
          "name": "owner",
          "type": "address"
        }
      ],
      "name": "balanceOf",
      "outputs": [
        {
          "internalType": "uint256",
          "name": "",
          "type": "uint256"
        }
      ],
      "stateMutability": "view",
      "type": "function"
    },
    {
      "inputs": [
        {
          "internalType": "address",
          "name": "owner",
          "type": "address"
        }
      ],
      "name": "balanceOfUnderlying",
      "outputs": [
        {
          "internalType": "uint256",
          "name": "",
          "type": "uint256"
        }
      ],
      "stateMutability": "nonpayable",
      "type": "function"
    },
    {
      "inputs": [
        {
          "internalType": "uint256",
          "name": "borrowAmount",
          "type": "uint256"
        }
      ],
      "name": "borrow",
      "outputs": [
        {
          "internalType": "uint256",
          "name": "",
          "type": "uint256"
        }
      ],
      "stateMutability": "nonpayable",
      "type": "function"
    },
    {
      "inputs": [
        {
          "internalType": "address",
          "name": "account",
          "type": "address"
        }
      ],
      "name": "borrowBalanceCurrent",
      "outputs": [
        {
          "internalType": "uint256",
          "name": "",
          "type": "uint256"
        }
      ],
      "stateMutability": "nonpayable",
      "type": "function"
    },
    {
      "inputs": [
        {
          "internalType": "address",
          "name": "account",
          "type": "address"
        }
      ],
      "name": "borrowBalanceStored",
      "outputs": [
        {
          "internalType": "uint256",
          "name": "",
          "type": "uint256"
        }
      ],
      "stateMutability": "view",
      "type": "function"
    },
    {
      "inputs": [],
      "name": "borrowIndex",
      "outputs": [
        {
          "internalType": "uint256",
          "name": "",
          "type": "uint256"
        }
      ],
      "stateMutability": "view",
      "type": "function"
    },
    {
      "inputs": [],
      "name": "borrowRatePerBlock",
      "outputs": [
        {
          "internalType": "uint256",
          "name": "",
          "type": "uint256"
        }
      ],
      "stateMutability": "view",
      "type": "function"
    },
    {
      "inputs": [],
      "name": "comptroller",
      "outputs": [
        {
          "internalType": "contract ComptrollerInterface",
          "name": "",
          "type": "address"
        }
      ],
      "stateMutability": "view",
      "type": "function"
    },
    {
      "inputs": [],
      "name": "decimals",
      "outputs": [
        {
          "internalType": "uint8",
          "name": "",
          "type": "uint8"
        }
      ],
      "stateMutability": "view",
      "type": "function"
    },
    {
      "inputs": [],
      "name": "exchangeRateCurrent",
      "outputs": [
        {
          "internalType": "uint256",
          "name": "",
          "type": "uint256"
        }
      ],
      "stateMutability": "nonpayable",
      "type": "function"
    },
    {
      "inputs": [],
      "name": "exchangeRateStored",
      "outputs": [
        {
          "internalType": "uint256",
          "name": "",
          "type": "uint256"
        }
      ],
      "stateMutability": "view",
      "type": "function"
    },
    {
      "inputs": [
        {
          "internalType": "address",
          "name": "account",
          "type": "address"
        }
      ],
      "name": "getAccountSnapshot",
      "outputs": [
        {
          "internalType": "uint256",
          "name": "",
          "type": "uint256"
        },
        {
          "internalType": "uint256",
          "name": "",
          "type": "uint256"
        },
        {
          "internalType": "uint256",
          "name": "",
          "type": "uint256"
        },
        {
          "internalType": "uint256",
          "name": "",
          "type": "uint256"
        }
      ],
      "stateMutability": "view",
      "type": "function"
    },
    {
      "inputs": [],
      "name": "getCash",
      "outputs": [
        {
          "internalType": "uint256",
          "name": "",
          "type": "uint256"
        }
      ],
      "stateMutability": "view",
      "type": "function"
    },
    {
      "inputs": [],
      "name": "implementation",
      "outputs": [
        {
          "internalType": "address",
          "name": "",
          "type": "address"
        }
      ],
      "stateMutability": "view",
      "type": "function"
    },
    {
      "inputs": [
        {
          "internalType": "address",
          "name": "underlying_",
          "type": "address"
        },
        {
          "internalType": "contract ComptrollerInterface",
          "name": "comptroller_",
          "type": "address"
        },
        {
          "internalType": "contract InterestRateModel",
          "name": "interestRateModel_",
          "type": "address"
        },
        {
          "internalType": "uint256",
          "name": "initialExchangeRateMantissa_",
          "type": "uint256"
        },
        {
          "internalType": "string",
          "name": "name_",
          "type": "string"
        },
        {
          "internalType": "string",
          "name": "symbol_",
          "type": "string"
        },
        {
          "internalType": "uint8",
          "name": "decimals_",
          "type": "uint8"
        }
      ],
      "name": "initialize",
      "outputs": [],
      "stateMutability": "nonpayable",
      "type": "function"
    },
    {
      "inputs": [
        {
          "internalType": "contract ComptrollerInterface",
          "name": "comptroller_",
          "type": "address"
        },
        {
          "internalType": "contract InterestRateModel",
          "name": "interestRateModel_",
          "type": "address"
        },
        {
          "internalType": "uint256",
          "name": "initialExchangeRateMantissa_",
          "type": "uint256"
        },
        {
          "internalType": "string",
          "name": "name_",
          "type": "string"
        },
        {
          "internalType": "string",
          "name": "symbol_",
          "type": "string"
        },
        {
          "internalType": "uint8",
          "name": "decimals_",
          "type": "uint8"
        }
      ],
      "name": "initialize",
      "outputs": [],
      "stateMutability": "nonpayable",
      "type": "function"
    },
    {
      "inputs": [],
      "name": "interestRateModel",
      "outputs": [
        {
          "internalType": "contract InterestRateModel",
          "name": "",
          "type": "address"
        }
      ],
      "stateMutability": "view",
      "type": "function"
    },
    {
      "inputs": [],
      "name": "isCToken",
      "outputs": [
        {
          "internalType": "bool",
          "name": "",
          "type": "bool"
        }
      ],
      "stateMutability": "view",
      "type": "function"
    },
    {
      "inputs": [
        {
          "internalType": "address",
          "name": "borrower",
          "type": "address"
        },
        {
          "internalType": "uint256",
          "name": "repayAmount",
          "type": "uint256"
        },
        {
          "internalType": "contract CTokenInterface",
          "name": "cTokenCollateral",
          "type": "address"
        }
      ],
      "name": "liquidateBorrow",
      "outputs": [
        {
          "internalType": "uint256",
          "name": "",
          "type": "uint256"
        }
      ],
      "stateMutability": "nonpayable",
      "type": "function"
    },
    {
      "inputs": [
        {
          "internalType": "uint256",
          "name": "mintAmount",
          "type": "uint256"
        }
      ],
      "name": "mint",
      "outputs": [
        {
          "internalType": "uint256",
          "name": "",
          "type": "uint256"
        }
      ],
      "stateMutability": "nonpayable",
      "type": "function"
    },
    {
      "inputs": [],
      "name": "name",
      "outputs": [
        {
          "internalType": "string",
          "name": "",
          "type": "string"
        }
      ],
      "stateMutability": "view",
      "type": "function"
    },
    {
      "inputs": [],
      "name": "pendingAdmin",
      "outputs": [
        {
          "internalType": "address payable",
          "name": "",
          "type": "address"
        }
      ],
      "stateMutability": "view",
      "type": "function"
    },
    {
      "inputs": [],
      "name": "protocolSeizeShareMantissa",
      "outputs": [
        {
          "internalType": "uint256",
          "name": "",
          "type": "uint256"
        }
      ],
      "stateMutability": "view",
      "type": "function"
    },
    {
      "inputs": [
        {
          "internalType": "uint256",
          "name": "redeemTokens",
          "type": "uint256"
        }
      ],
      "name": "redeem",
      "outputs": [
        {
          "internalType": "uint256",
          "name": "",
          "type": "uint256"
        }
      ],
      "stateMutability": "nonpayable",
      "type": "function"
    },
    {
      "inputs": [
        {
          "internalType": "uint256",
          "name": "redeemAmount",
          "type": "uint256"
        }
      ],
      "name": "redeemUnderlying",
      "outputs": [
        {
          "internalType": "uint256",
          "name": "",
          "type": "uint256"
        }
      ],
      "stateMutability": "nonpayable",
      "type": "function"
    },
    {
      "inputs": [
        {
          "internalType": "uint256",
          "name": "repayAmount",
          "type": "uint256"
        }
      ],
      "name": "repayBorrow",
      "outputs": [
        {
          "internalType": "uint256",
          "name": "",
          "type": "uint256"
        }
      ],
      "stateMutability": "nonpayable",
      "type": "function"
    },
    {
      "inputs": [
        {
          "internalType": "address",
          "name": "borrower",
          "type": "address"
        },
        {
          "internalType": "uint256",
          "name": "repayAmount",
          "type": "uint256"
        }
      ],
      "name": "repayBorrowBehalf",
      "outputs": [
        {
          "internalType": "uint256",
          "name": "",
          "type": "uint256"
        }
      ],
      "stateMutability": "nonpayable",
      "type": "function"
    },
    {
      "inputs": [],
      "name": "reserveFactorMantissa",
      "outputs": [
        {
          "internalType": "uint256",
          "name": "",
          "type": "uint256"
        }
      ],
      "stateMutability": "view",
      "type": "function"
    },
    {
      "inputs": [
        {
          "internalType": "address",
          "name": "liquidator",
          "type": "address"
        },
        {
          "internalType": "address",
          "name": "borrower",
          "type": "address"
        },
        {
          "internalType": "uint256",
          "name": "seizeTokens",
          "type": "uint256"
        }
      ],
      "name": "seize",
      "outputs": [
        {
          "internalType": "uint256",
          "name": "",
          "type": "uint256"
        }
      ],
      "stateMutability": "nonpayable",
      "type": "function"
    },
    {
      "inputs": [],
      "name": "supplyRatePerBlock",
      "outputs": [
        {
          "internalType": "uint256",
          "name": "",
          "type": "uint256"
        }
      ],
      "stateMutability": "view",
      "type": "function"
    },
    {
      "inputs": [
        {
          "internalType": "contract EIP20NonStandardInterface",
          "name": "token",
          "type": "address"
        }
      ],
      "name": "sweepToken",
      "outputs": [],
      "stateMutability": "nonpayable",
      "type": "function"
    },
    {
      "inputs": [],
      "name": "symbol",
      "outputs": [
        {
          "internalType": "string",
          "name": "",
          "type": "string"
        }
      ],
      "stateMutability": "view",
      "type": "function"
    },
    {
      "inputs": [],
      "name": "totalBorrows",
      "outputs": [
        {
          "internalType": "uint256",
          "name": "",
          "type": "uint256"
        }
      ],
      "stateMutability": "view",
      "type": "function"
    },
    {
      "inputs": [],
      "name": "totalBorrowsCurrent",
      "outputs": [
        {
          "internalType": "uint256",
          "name": "",
          "type": "uint256"
        }
      ],
      "stateMutability": "nonpayable",
      "type": "function"
    },
    {
      "inputs": [],
      "name": "totalReserves",
      "outputs": [
        {
          "internalType": "uint256",
          "name": "",
          "type": "uint256"
        }
      ],
      "stateMutability": "view",
      "type": "function"
    },
    {
      "inputs": [],
      "name": "totalSupply",
      "outputs": [
        {
          "internalType": "uint256",
          "name": "",
          "type": "uint256"
        }
      ],
      "stateMutability": "view",
      "type": "function"
    },
    {
      "inputs": [
        {
          "internalType": "address",
          "name": "dst",
          "type": "address"
        },
        {
          "internalType": "uint256",
          "name": "amount",
          "type": "uint256"
        }
      ],
      "name": "transfer",
      "outputs": [
        {
          "internalType": "bool",
          "name": "",
          "type": "bool"
        }
      ],
      "stateMutability": "nonpayable",
      "type": "function"
    },
    {
      "inputs": [
        {
          "internalType": "address",
          "name": "src",
          "type": "address"
        },
        {
          "internalType": "address",
          "name": "dst",
          "type": "address"
        },
        {
          "internalType": "uint256",
          "name": "amount",
          "type": "uint256"
        }
      ],
      "name": "transferFrom",
      "outputs": [
        {
          "internalType": "bool",
          "name": "",
          "type": "bool"
        }
      ],
      "stateMutability": "nonpayable",
      "type": "function"
    },
    {
      "inputs": [],
      "name": "underlying",
      "outputs": [
        {
          "internalType": "address",
          "name": "",
          "type": "address"
        }
      ],
      "stateMutability": "view",
      "type": "function"
    }
  ],
  "bytecode": "0x608060405234801561001057600080fd5b50613bda806100206000396000f3fe608060405234801561001057600080fd5b506004361061035d5760003560e01c806370a08231116101d3578063b71d1a0c11610104578063f2b3abbd116100a2578063f851a4401161007c578063f851a44014610727578063f8f9da281461073f578063fca7820b14610747578063fe9c44ae1461075a57600080fd5b8063f2b3abbd146106ee578063f3fdb15a14610701578063f5e3c4621461071457600080fd5b8063c5ebeaec116100de578063c5ebeaec14610687578063db006a751461069a578063dd62ed3e146106ad578063e9c714f2146106e657600080fd5b8063b71d1a0c14610639578063bd6d894d1461064c578063c37f68e21461065457600080fd5b806399d8c1b411610171578063a9059cbb1161014b578063a9059cbb14610602578063aa5af0fd14610615578063ae9d70b01461061e578063b2a02ff11461062657600080fd5b806399d8c1b4146105d4578063a0712d68146105e7578063a6afed95146105fa57600080fd5b8063852a12e3116101ad578063852a12e31461059d5780638f840ddd146105b057806395d89b41146105b957806395dd9193146105c157600080fd5b806370a082311461055957806373acee98146105825780637f1e06be1461058a57600080fd5b8063313ce567116102ad5780635c60da1b1161024b5780636752e702116102255780636752e7021461052757806369ab3250146105355780636c540baf1461053d5780636f307dc31461054657600080fd5b80635c60da1b146104ee5780635fe3b56714610501578063601a0bf11461051457600080fd5b80633e941010116102875780633e941010146104ac5780634576b5db146104bf57806347bd3718146104d257806356e67728146104db57600080fd5b8063313ce567146104725780633af9e669146104915780633b1d21a2146104a457600080fd5b806318160ddd1161031a5780631be19560116102f45780631be195601461040e57806323b872dd146104215780632608f81814610434578063267822471461044757600080fd5b806318160ddd146103ea578063182df0f5146103f35780631a31d465146103fb57600080fd5b806306fdde0314610362578063095ea7b3146103805780630e752702146103a3578063153ab505146103c4578063173b9904146103ce57806317bfdfbc146103d7575b600080fd5b61036a610762565b604051610377919061351e565b60405180910390f35b61039361038e366004613581565b6107f0565b6040519015158152602001610377565b6103b66103b13660046135ad565b610860565b604051908152602001610377565b6103cc610873565b005b6103b660085481565b6103b66103e53660046135c6565b6108ef565b6103b6600d5481565b6103b6610942565b6103cc6104093660046136a5565b610951565b6103cc61041c3660046135c6565b6109fd565b61039361042f36600461375b565b610bc9565b6103b6610442366004613581565b610c19565b60045461045a906001600160a01b031681565b6040516001600160a01b039091168152602001610377565b60035461047f9060ff1681565b60405160ff9091168152602001610377565b6103b661049f3660046135c6565b610c2e565b6103b6610c74565b6103b66104ba3660046135ad565b610c7e565b6103b66104cd3660046135c6565b610c89565b6103b6600b5481565b6103cc6104e936600461379c565b610ddb565b60125461045a906001600160a01b031681565b60055461045a906001600160a01b031681565b6103b66105223660046135ad565b610e53565b6103b6666379da05b6000081565b6103b6600081565b6103b660095481565b60115461045a906001600160a01b031681565b6103b66105673660046135c6565b6001600160a01b03166000908152600e602052604090205490565b6103b6610e92565b6103cc6105983660046135c6565b610edc565b6103b66105ab3660046135ad565b610fb3565b6103b6600c5481565b61036a610fbe565b6103b66105cf3660046135c6565b610fcb565b6103cc6105e23660046137e5565b610fd6565b6103b66105f53660046135ad565b611223565b6103b661122e565b610393610610366004613581565b61141b565b6103b6600a5481565b6103b661146a565b6103b661063436600461375b565b611502565b6103b66106473660046135c6565b611551565b6103b66115de565b6106676106623660046135c6565b61162e565b604080519485526020850193909352918301526060820152608001610377565b6103b66106953660046135ad565b61166f565b6103b66106a83660046135ad565b61167a565b6103b66106bb366004613887565b6001600160a01b039182166000908152600f6020908152604080832093909416825291909152205490565b6103b6611685565b6103b66106fc3660046135c6565b61178c565b60065461045a906001600160a01b031681565b6103b66107223660046138c0565b6117a0565b60035461045a9061010090046001600160a01b031681565b6103b66117b7565b6103b66107553660046135ad565b61180a565b610393600181565b6001805461076f90613902565b80601f016020809104026020016040519081016040528092919081815260200182805461079b90613902565b80156107e85780601f106107bd576101008083540402835291602001916107e8565b820191906000526020600020905b8154815290600101906020018083116107cb57829003601f168201915b505050505081565b336000818152600f602090815260408083206001600160a01b03871680855292528083208590555191929182907f8c5be1e5ebec7d5bd14f71427d1e84f3dd0314c0f7b2291e5b200ac8c7c3b9259061084c9087815260200190565b60405180910390a360019150505b92915050565b600061086b82611849565b506000919050565b60035461010090046001600160a01b031633146108ed5760405162461bcd60e51b815260206004820152602d60248201527f6f6e6c79207468652061646d696e206d61792063616c6c205f72657369676e4960448201526c36b83632b6b2b73a30ba34b7b760991b60648201526084015b60405180910390fd5b565b6000805460ff166109125760405162461bcd60e51b81526004016108e49061393c565b6000805460ff1916905561092461122e565b5061092e82610fcb565b90506000805460ff19166001179055919050565b600061094c61189a565b905090565b60038054610100600160a81b0319163361010002179055610976868686868686610fd6565b601180546001600160a01b0319166001600160a01b038916908117909155604080516318160ddd60e01b815290516318160ddd916004808201926020929091908290030181865afa1580156109cf573d6000803e3d6000fd5b505050506040513d601f19601f820116820180604052508101906109f39190613960565b5050505050505050565b60035461010090046001600160a01b03163314610a745760405162461bcd60e51b815260206004820152602f60248201527f4345726332303a3a7377656570546f6b656e3a206f6e6c792061646d696e206360448201526e616e20737765657020746f6b656e7360881b60648201526084016108e4565b6011546001600160a01b0390811690821603610aed5760405162461bcd60e51b815260206004820152603260248201527f4345726332303a3a7377656570546f6b656e3a2063616e206e6f74207377656560448201527138103ab73232b9363cb4b733903a37b5b2b760711b60648201526084016108e4565b6040516370a0823160e01b81523060048201526000906001600160a01b038316906370a0823190602401602060405180830381865afa158015610b34573d6000803e3d6000fd5b505050506040513d601f19601f82011682018060405250810190610b589190613960565b60035460405163a9059cbb60e01b81526001600160a01b03610100909204821660048201526024810183905291925083169063a9059cbb90604401600060405180830381600087803b158015610bad57600080fd5b505af1158015610bc1573d6000803e3d6000fd5b505050505050565b6000805460ff16610bec5760405162461bcd60e51b81526004016108e49061393c565b6000805460ff19168155610c0233868686611902565b1490506000805460ff191660011790559392505050565b6000610c258383611b2e565b50600092915050565b6000806040518060200160405280610c446115de565b90526001600160a01b0384166000908152600e6020526040902054909150610c6d908290611b80565b9392505050565b600061094c611ba0565b600061085a82611c15565b60035460009061010090046001600160a01b03163314610cbc5760405163d219dc1f60e01b815260040160405180910390fd5b60055460408051623f1ee960e11b815290516001600160a01b0392831692851691627e3dd29160048083019260209291908290030181865afa158015610d06573d6000803e3d6000fd5b505050506040513d601f19601f82011682018060405250810190610d2a9190613979565b610d765760405162461bcd60e51b815260206004820152601c60248201527f6d61726b6572206d6574686f642072657475726e65642066616c73650000000060448201526064016108e4565b600580546001600160a01b0319166001600160a01b0385811691821790925560408051928416835260208301919091527f7ac369dbd14fa5ea3f473ed67cc9d598964a77501540ba6751eb0b3decf5870d91015b60405180910390a150600092915050565b60035461010090046001600160a01b03163314610e505760405162461bcd60e51b815260206004820152602d60248201527f6f6e6c79207468652061646d696e206d61792063616c6c205f6265636f6d654960448201526c36b83632b6b2b73a30ba34b7b760991b60648201526084016108e4565b50565b6000805460ff16610e765760405162461bcd60e51b81526004016108e49061393c565b6000805460ff19169055610e8861122e565b5061092e82611c6c565b6000805460ff16610eb55760405162461bcd60e51b81526004016108e49061393c565b6000805460ff19169055610ec761122e565b5050600b546000805460ff1916600117905590565b60035461010090046001600160a01b03163314610f515760405162461bcd60e51b815260206004820152602d60248201527f6f6e6c79207468652061646d696e206d6179207365742074686520636f6d702d60448201526c6c696b652064656c656761746560981b60648201526084016108e4565b6011546040516317066a5760e21b81526001600160a01b03838116600483015290911690635c19a95c90602401600060405180830381600087803b158015610f9857600080fd5b505af1158015610fac573d6000803e3d6000fd5b5050505050565b600061086b82611d87565b6002805461076f90613902565b600061085a82611dd8565b60035461010090046001600160a01b031633146110415760405162461bcd60e51b8152602060048201526024808201527f6f6e6c792061646d696e206d617920696e697469616c697a6520746865206d616044820152631c9ad95d60e21b60648201526084016108e4565b6009541580156110515750600a54155b6110a95760405162461bcd60e51b815260206004820152602360248201527f6d61726b6574206d6179206f6e6c7920626520696e697469616c697a6564206f6044820152626e636560e81b60648201526084016108e4565b6007849055836111145760405162461bcd60e51b815260206004820152603060248201527f696e697469616c2065786368616e67652072617465206d75737420626520677260448201526f32b0ba32b9103a3430b7103d32b9379760811b60648201526084016108e4565b600061111f87610c89565b9050801561116f5760405162461bcd60e51b815260206004820152601a60248201527f73657474696e6720636f6d7074726f6c6c6572206661696c656400000000000060448201526064016108e4565b43600955670de0b6b3a7640000600a5561118886611e24565b905080156111e35760405162461bcd60e51b815260206004820152602260248201527f73657474696e6720696e7465726573742072617465206d6f64656c206661696c604482015261195960f21b60648201526084016108e4565b60016111ef85826139e6565b5060026111fc84826139e6565b50506003805460ff90921660ff199283161790556000805490911660011790555050505050565b600061086b82611f99565b60095460009043908181036112465760009250505090565b6000611250611ba0565b600b54600c54600a546006546040516315f2405360e01b81526004810186905260248101859052604481018490529495509293919290916000916001600160a01b0316906315f2405390606401602060405180830381865afa1580156112ba573d6000803e3d6000fd5b505050506040513d601f19601f820116820180604052508101906112de9190613960565b905065048c273950008111156113365760405162461bcd60e51b815260206004820152601c60248201527f626f72726f772072617465206973206162737572646c7920686967680000000060448201526064016108e4565b60006113428789613abc565b9050600061135e60405180602001604052808581525083611fd8565b9050600061136c8288611b80565b9050600061137a8883613acf565b905060006113996040518060200160405280600854815250848a612009565b905060006113a885898a612009565b60098e9055600a819055600b849055600c839055604080518d815260208101879052908101829052606081018590529091507f4dec04e750ca11537cabcd8a9eab06494de08da3735bc8871cd41250e190bc049060800160405180910390a160009d505050505050505050505050505090565b6000805460ff1661143e5760405162461bcd60e51b81526004016108e49061393c565b6000805460ff1916815561145433808686611902565b1490506000805460ff1916600117905592915050565b6006546000906001600160a01b031663b8168816611486611ba0565b600b54600c546008546040516001600160e01b031960e087901b16815260048101949094526024840192909252604483015260648201526084015b602060405180830381865afa1580156114de573d6000803e3d6000fd5b505050506040513d601f19601f8201168201806040525081019061094c9190613960565b6000805460ff166115255760405162461bcd60e51b81526004016108e49061393c565b6000805460ff1916905561153b3385858561202a565b50600080805460ff191660011790559392505050565b60035460009061010090046001600160a01b0316331461158457604051635cb56c2b60e01b815260040160405180910390fd5b600480546001600160a01b038481166001600160a01b031983168117909355604080519190921680825260208201939093527fca4f2f25d0898edd99413412fb94012f9e54ec8142f9b093e7720646a95b16a99101610dca565b6000805460ff166116015760405162461bcd60e51b81526004016108e49061393c565b6000805460ff1916905561161361122e565b5061161c610942565b90506000805460ff1916600117905590565b6001600160a01b0381166000908152600e6020526040812054819081908190819061165887611dd8565b61166061189a565b93509350935093509193509193565b600061086b826122a2565b600061086b826122e1565b6004546000906001600160a01b0316331415806116a0575033155b156116be57604051631ba24f2960e21b815260040160405180910390fd5b60038054600480546001600160a01b03808216610100818102610100600160a81b0319871617968790556001600160a01b031990931690935560408051948390048216808652929095041660208401529290917ff9ffabca9c8276e99321725bcb43fb076a6c66a54b7f21c4e8146d8519b417dc910160405180910390a1600454604080516001600160a01b03808516825290921660208301527fca4f2f25d0898edd99413412fb94012f9e54ec8142f9b093e7720646a95b16a9910160405180910390a160009250505090565b600061179661122e565b5061085a82611e24565b60006117ad848484612322565b5060009392505050565b6006546000906001600160a01b03166315f240536117d3611ba0565b600b54600c546040516001600160e01b031960e086901b1681526004810193909352602483019190915260448201526064016114c1565b6000805460ff1661182d5760405162461bcd60e51b81526004016108e49061393c565b6000805460ff1916905561183f61122e565b5061092e82612400565b60005460ff1661186b5760405162461bcd60e51b81526004016108e49061393c565b6000805460ff1916905561187d61122e565b506118893333836124bc565b50506000805460ff19166001179055565b600d546000908082036118af57505060075490565b60006118b9611ba0565b90506000600c54600b54836118ce9190613acf565b6118d89190613abc565b90506000836118ef670de0b6b3a764000084613ae2565b6118f99190613af9565b95945050505050565b6005546040516317b9b84b60e31b81523060048201526001600160a01b038581166024830152848116604483015260648201849052600092839291169063bdcdc258906084016020604051808303816000875af1158015611967573d6000803e3d6000fd5b505050506040513d601f19601f8201168201806040525081019061198b9190613960565b905080156119af5760405163089d427760e11b8152600481018290526024016108e4565b836001600160a01b0316856001600160a01b0316036119e157604051638cd22d1960e01b815260040160405180910390fd5b6000856001600160a01b0316876001600160a01b031603611a055750600019611a2d565b506001600160a01b038086166000908152600f60209081526040808320938a16835292905220545b6000611a398583613abc565b6001600160a01b0388166000908152600e602052604081205491925090611a61908790613abc565b6001600160a01b0388166000908152600e602052604081205491925090611a89908890613acf565b6001600160a01b03808b166000908152600e6020526040808220869055918b1681522081905590506000198414611ae3576001600160a01b03808a166000908152600f60209081526040808320938e168352929052208390555b876001600160a01b0316896001600160a01b0316600080516020613b8583398151915289604051611b1691815260200190565b60405180910390a35060009998505050505050505050565b60005460ff16611b505760405162461bcd60e51b81526004016108e49061393c565b6000805460ff19169055611b6261122e565b50611b6e3383836124bc565b50506000805460ff1916600117905550565b600080611b8d8484611fd8565b9050611b9881612665565b949350505050565b6011546040516370a0823160e01b81523060048201526000916001600160a01b03169081906370a0823190602401602060405180830381865afa158015611beb573d6000803e3d6000fd5b505050506040513d601f19601f82011682018060405250810190611c0f9190613960565b91505090565b6000805460ff16611c385760405162461bcd60e51b81526004016108e49061393c565b6000805460ff19169055611c4a61122e565b50611c548261267d565b5050600090506000805460ff19166001179055919050565b600354600090819061010090046001600160a01b03163314611ca157604051630f7e5e6d60e41b815260040160405180910390fd5b4360095414611cc357604051630dff50cb60e41b815260040160405180910390fd5b82611ccc611ba0565b1015611ceb57604051633345e99960e01b815260040160405180910390fd5b600c54831115611d0e576040516378d2980560e11b815260040160405180910390fd5b82600c54611d1c9190613abc565b600c819055600354909150611d3f9061010090046001600160a01b031684612711565b7f3bad0c59cf2f06e7314077049f48a93578cd16f5ef92329f1dab1420a99c177e600360019054906101000a90046001600160a01b03168483604051610dca93929190613b1b565b60005460ff16611da95760405162461bcd60e51b81526004016108e49061393c565b6000805460ff19169055611dbb61122e565b50611dc8336000836127fb565b506000805460ff19166001179055565b6001600160a01b038116600090815260106020526040812080548203611e015750600092915050565b600a548154600091611e1291613ae2565b9050816001015481611b989190613af9565b600354600090819061010090046001600160a01b03163314611e595760405163407fded560e01b815260040160405180910390fd5b4360095414611e7b57604051630be2a5cb60e11b815260040160405180910390fd5b600660009054906101000a90046001600160a01b03169050826001600160a01b0316632191f92a6040518163ffffffff1660e01b8152600401602060405180830381865afa158015611ed1573d6000803e3d6000fd5b505050506040513d601f19601f82011682018060405250810190611ef59190613979565b611f415760405162461bcd60e51b815260206004820152601c60248201527f6d61726b6572206d6574686f642072657475726e65642066616c73650000000060448201526064016108e4565b600680546001600160a01b0319166001600160a01b0385811691821790925560408051928416835260208301919091527fedffc32e068c7c95dfd4bdfd5c4d939a084d6b11c4199eac8436ed234d72f9269101610dca565b60005460ff16611fbb5760405162461bcd60e51b81526004016108e49061393c565b6000805460ff19169055611fcd61122e565b50611dc83382612ad8565b6040805160208101909152600081526040518060200160405280612000856000015185612c8e565b90529392505050565b6000806120168585611fd8565b90506118f961202482612665565b84612c9a565b60055460405163d02f735160e01b81523060048201526001600160a01b0386811660248301528581166044830152848116606483015260848201849052600092169063d02f73519060a4016020604051808303816000875af1158015612094573d6000803e3d6000fd5b505050506040513d601f19601f820116820180604052508101906120b89190613960565b905080156120dc576040516363e00e3360e11b8152600481018290526024016108e4565b836001600160a01b0316836001600160a01b03160361210e57604051633a94626760e11b815260040160405180910390fd5b600061212f836040518060200160405280666379da05b60000815250612ca6565b9050600061213d8285613abc565b90506000604051806020016040528061215461189a565b9052905060006121648285611b80565b9050600081600c546121769190613acf565b600c819055600d5490915061218c908690613abc565b600d556001600160a01b0388166000908152600e60205260409020546121b3908890613abc565b6001600160a01b03808a166000908152600e602052604080822093909355908b16815220546121e3908590613acf565b6001600160a01b03808b166000818152600e602052604090819020939093559151908a1690600080516020613b85833981519152906122259088815260200190565b60405180910390a360405185815230906001600160a01b038a1690600080516020613b858339815191529060200160405180910390a37fa91e67c5ea634cd43a12c5a482724b03de01e85ca68702a53d0c2f45cb7c1dc530838360405161228e93929190613b1b565b60405180910390a150505050505050505050565b60005460ff166122c45760405162461bcd60e51b81526004016108e49061393c565b6000805460ff191690556122d661122e565b50611dc83382612cc9565b60005460ff166123035760405162461bcd60e51b81526004016108e49061393c565b6000805460ff1916905561231561122e565b50611dc8338260006127fb565b60005460ff166123445760405162461bcd60e51b81526004016108e49061393c565b6000805460ff1916905561235661122e565b506000816001600160a01b031663a6afed956040518163ffffffff1660e01b81526004016020604051808303816000875af1158015612399573d6000803e3d6000fd5b505050506040513d601f19601f820116820180604052508101906123bd9190613960565b905080156123e157604051633eea49b760e11b8152600481018290526024016108e4565b6123ed33858585612e68565b50506000805460ff191660011790555050565b60035460009061010090046001600160a01b0316331461243357604051631205b57b60e11b815260040160405180910390fd5b436009541461245557604051637dfca6b760e11b815260040160405180910390fd5b670de0b6b3a764000082111561247e5760405163717220f360e11b815260040160405180910390fd5b600880549083905560408051828152602081018590527faaa68312e2ea9d50e16af5068410ab56e1a1fd06037b1a35664812c30f8214609101610dca565b600554604051631200453160e11b81523060048201526001600160a01b03858116602483015284811660448301526064820184905260009283929116906324008a62906084016020604051808303816000875af1158015612521573d6000803e3d6000fd5b505050506040513d601f19601f820116820180604052508101906125459190613960565b9050801561256957604051638c81362d60e01b8152600481018290526024016108e4565b436009541461258b5760405163c9021e2f60e01b815260040160405180910390fd5b600061259685611dd8565b9050600060001985146125a957846125ab565b815b905060006125b98883613322565b905060006125c78285613abc565b9050600082600b546125d99190613abc565b6001600160a01b038a8116600081815260106020908152604091829020878155600a54600190910155600b8590558151938f168452830191909152810185905260608101849052608081018290529091507f1a2a22cb034d26d1854bdc6666a5b91fe25efbbb5dcad3b0355478d6f5c362a19060a00160405180910390a1509098975050505050505050565b805160009061085a90670de0b6b3a764000090613af9565b600080808043600954146126a7576040516338acf79960e01b8152600481018290526024016108e4565b6126b13386613322565b905080600c546126c19190613acf565b915081600c819055507fa91e67c5ea634cd43a12c5a482724b03de01e85ca68702a53d0c2f45cb7c1dc53382846040516126fd93929190613b1b565b60405180910390a160009590945092505050565b60115460405163a9059cbb60e01b81526001600160a01b0384811660048301526024820184905290911690819063a9059cbb90604401600060405180830381600087803b15801561276157600080fd5b505af1158015612775573d6000803e3d6000fd5b5050505060003d60008114612791576020811461279b57600080fd5b60001991506127a7565b60206000803e60005191505b50806127f55760405162461bcd60e51b815260206004820152601960248201527f544f4b454e5f5452414e534645525f4f55545f4641494c45440000000000000060448201526064016108e4565b50505050565b811580612806575080155b61286f5760405162461bcd60e51b815260206004820152603460248201527f6f6e65206f662072656465656d546f6b656e73496e206f722072656465656d416044820152736d6f756e74496e206d757374206265207a65726f60601b60648201526084016108e4565b6000604051806020016040528061288461189a565b9052905060008084156128a55784915061289e8386611b80565b90506128b5565b6128af84846134f9565b91508390505b60055460405163eabe7d9160e01b81526000916001600160a01b03169063eabe7d91906128ea9030908b908890600401613b3c565b6020604051808303816000875af1158015612909573d6000803e3d6000fd5b505050506040513d601f19601f8201168201806040525081019061292d9190613960565b905080156129515760405163480f424760e01b8152600481018290526024016108e4565b4360095414612973576040516397b5cfcd60e01b815260040160405180910390fd5b8161297c611ba0565b101561299b576040516391240a1b60e01b815260040160405180910390fd5b82600d546129a99190613abc565b600d556001600160a01b0387166000908152600e60205260409020546129d0908490613abc565b6001600160a01b0388166000908152600e60205260409020556129f38783612711565b60405183815230906001600160a01b03891690600080516020613b858339815191529060200160405180910390a37fe5b754fb1abb7f01b499791d0b820ae3b6af3424ac1c59768edb53f4ec31a929878385604051612a5493929190613b1b565b60405180910390a16005546040516351dff98960e01b81523060048201526001600160a01b0389811660248301526044820185905260648201869052909116906351dff98990608401600060405180830381600087803b158015612ab757600080fd5b505af1158015612acb573d6000803e3d6000fd5b5050505050505050505050565b600554604051634ef4c3e160e01b81526000916001600160a01b031690634ef4c3e190612b0d90309087908790600401613b3c565b6020604051808303816000875af1158015612b2c573d6000803e3d6000fd5b505050506040513d601f19601f82011682018060405250810190612b509190613960565b90508015612b74576040516349abd4fd60e01b8152600481018290526024016108e4565b4360095414612b96576040516338d8859760e01b815260040160405180910390fd5b60006040518060200160405280612bab61189a565b905290506000612bbb8585613322565b90506000612bc982846134f9565b905080600d54612bd99190613acf565b600d556001600160a01b0386166000908152600e6020526040902054612c00908290613acf565b6001600160a01b0387166000908152600e60205260409081902091909155517f4c209b5fc8ad50758f13e2e1088ba56a560dff690a1c6fef26394f4c03821c4f90612c5090889085908590613b1b565b60405180910390a16040518181526001600160a01b038716903090600080516020613b858339815191529060200160405180910390a3505050505050565b6000610c6d8284613ae2565b6000610c6d8284613acf565b6000670de0b6b3a7640000612cbf848460000151612c8e565b610c6d9190613af9565b60055460405163368f515360e21b81526000916001600160a01b03169063da3d454c90612cfe90309087908790600401613b3c565b6020604051808303816000875af1158015612d1d573d6000803e3d6000fd5b505050506040513d601f19601f82011682018060405250810190612d419190613960565b90508015612d655760405163918db40f60e01b8152600481018290526024016108e4565b4360095414612d8757604051630e8d8c6160e21b815260040160405180910390fd5b81612d90611ba0565b1015612daf576040516348c2588160e01b815260040160405180910390fd5b6000612dba84611dd8565b90506000612dc88483613acf565b9050600084600b54612dda9190613acf565b6001600160a01b0387166000908152601060205260409020838155600a54600190910155600b8190559050612e0f8686612711565b604080516001600160a01b038816815260208101879052908101839052606081018290527f13ed6866d4e1ee6da46f845c46d7e54120883d75c5ea9a2dacc1c4ca8984ab809060800160405180910390a1505050505050565b600554604051632fe3f38f60e11b81523060048201526001600160a01b03838116602483015286811660448301528581166064830152608482018590526000921690635fc7e71e9060a4016020604051808303816000875af1158015612ed2573d6000803e3d6000fd5b505050506040513d601f19601f82011682018060405250810190612ef69190613960565b90508015612f1a57604051630a14d17960e11b8152600481018290526024016108e4565b4360095414612f3c576040516380965b1b60e01b815260040160405180910390fd5b43826001600160a01b0316636c540baf6040518163ffffffff1660e01b8152600401602060405180830381865afa158015612f7b573d6000803e3d6000fd5b505050506040513d601f19601f82011682018060405250810190612f9f9190613960565b14612fbd57604051631046f38d60e31b815260040160405180910390fd5b846001600160a01b0316846001600160a01b031603612fef57604051631bd1a62160e21b815260040160405180910390fd5b826000036130105760405163d29da7ef60e01b815260040160405180910390fd5b600019830361303257604051635982c5bb60e11b815260040160405180910390fd5b600061303f8686866124bc565b60055460405163c488847b60e01b815291925060009182916001600160a01b03169063c488847b9061307990309089908890600401613b3c565b6040805180830381865afa158015613095573d6000803e3d6000fd5b505050506040513d601f19601f820116820180604052508101906130b99190613b60565b91509150600082146131295760405162461bcd60e51b815260206004820152603360248201527f4c49515549444154455f434f4d5054524f4c4c45525f43414c43554c4154455f604482015272105353d5539517d4d152569157d19052531151606a1b60648201526084016108e4565b6040516370a0823160e01b81526001600160a01b0388811660048301528291908716906370a0823190602401602060405180830381865afa158015613172573d6000803e3d6000fd5b505050506040513d601f19601f820116820180604052508101906131969190613960565b10156131e45760405162461bcd60e51b815260206004820152601860248201527f4c49515549444154455f5345495a455f544f4f5f4d554348000000000000000060448201526064016108e4565b306001600160a01b03861603613205576132003089898461202a565b6132bf565b60405163b2a02ff160e01b81526000906001600160a01b0387169063b2a02ff190613238908c908c908790600401613b3c565b6020604051808303816000875af1158015613257573d6000803e3d6000fd5b505050506040513d601f19601f8201168201806040525081019061327b9190613960565b146132bf5760405162461bcd60e51b81526020600482015260146024820152731d1bdad95b881cd95a5e9d5c994819985a5b195960621b60448201526064016108e4565b604080516001600160a01b038a811682528981166020830152818301869052871660608201526080810183905290517f298637f684da70674f26509b10f07ec2fbc77a335ab1e7d6215a4b2484d8bb529181900360a00190a15050505050505050565b6011546040516370a0823160e01b81523060048201526000916001600160a01b0316908190839082906370a0823190602401602060405180830381865afa158015613371573d6000803e3d6000fd5b505050506040513d601f19601f820116820180604052508101906133959190613960565b6040516323b872dd60e01b81529091506001600160a01b038316906323b872dd906133c890899030908a90600401613b3c565b600060405180830381600087803b1580156133e257600080fd5b505af11580156133f6573d6000803e3d6000fd5b5050505060003d60008114613412576020811461341c57600080fd5b6000199150613428565b60206000803e60005191505b50806134765760405162461bcd60e51b815260206004820152601860248201527f544f4b454e5f5452414e534645525f494e5f4641494c4544000000000000000060448201526064016108e4565b6040516370a0823160e01b81523060048201526000906001600160a01b038616906370a0823190602401602060405180830381865afa1580156134bd573d6000803e3d6000fd5b505050506040513d601f19601f820116820180604052508101906134e19190613960565b90506134ed8382613abc565b98975050505050505050565b6000610c6d61351084670de0b6b3a7640000612c8e565b83516000610c6d8284613af9565b600060208083528351808285015260005b8181101561354b5785810183015185820160400152820161352f565b506000604082860101526040601f19601f8301168501019250505092915050565b6001600160a01b0381168114610e5057600080fd5b6000806040838503121561359457600080fd5b823561359f8161356c565b946020939093013593505050565b6000602082840312156135bf57600080fd5b5035919050565b6000602082840312156135d857600080fd5b8135610c6d8161356c565b634e487b7160e01b600052604160045260246000fd5b600067ffffffffffffffff80841115613614576136146135e3565b604051601f8501601f19908116603f0116810190828211818310171561363c5761363c6135e3565b8160405280935085815286868601111561365557600080fd5b858560208301376000602087830101525050509392505050565b600082601f83011261368057600080fd5b610c6d838335602085016135f9565b803560ff811681146136a057600080fd5b919050565b600080600080600080600060e0888a0312156136c057600080fd5b87356136cb8161356c565b965060208801356136db8161356c565b955060408801356136eb8161356c565b945060608801359350608088013567ffffffffffffffff8082111561370f57600080fd5b61371b8b838c0161366f565b945060a08a013591508082111561373157600080fd5b5061373e8a828b0161366f565b92505061374d60c0890161368f565b905092959891949750929550565b60008060006060848603121561377057600080fd5b833561377b8161356c565b9250602084013561378b8161356c565b929592945050506040919091013590565b6000602082840312156137ae57600080fd5b813567ffffffffffffffff8111156137c557600080fd5b8201601f810184136137d657600080fd5b611b98848235602084016135f9565b60008060008060008060c087890312156137fe57600080fd5b86356138098161356c565b955060208701356138198161356c565b945060408701359350606087013567ffffffffffffffff8082111561383d57600080fd5b6138498a838b0161366f565b9450608089013591508082111561385f57600080fd5b5061386c89828a0161366f565b92505061387b60a0880161368f565b90509295509295509295565b6000806040838503121561389a57600080fd5b82356138a58161356c565b915060208301356138b58161356c565b809150509250929050565b6000806000606084860312156138d557600080fd5b83356138e08161356c565b92506020840135915060408401356138f78161356c565b809150509250925092565b600181811c9082168061391657607f821691505b60208210810361393657634e487b7160e01b600052602260045260246000fd5b50919050565b6020808252600a90820152691c994b595b9d195c995960b21b604082015260600190565b60006020828403121561397257600080fd5b5051919050565b60006020828403121561398b57600080fd5b81518015158114610c6d57600080fd5b601f8211156139e157600081815260208120601f850160051c810160208610156139c25750805b601f850160051c820191505b81811015610bc1578281556001016139ce565b505050565b815167ffffffffffffffff811115613a0057613a006135e3565b613a1481613a0e8454613902565b8461399b565b602080601f831160018114613a495760008415613a315750858301515b600019600386901b1c1916600185901b178555610bc1565b600085815260208120601f198616915b82811015613a7857888601518255948401946001909101908401613a59565b5085821015613a965787850151600019600388901b60f8161c191681555b5050505050600190811b01905550565b634e487b7160e01b600052601160045260246000fd5b8181038181111561085a5761085a613aa6565b8082018082111561085a5761085a613aa6565b808202811582820484141761085a5761085a613aa6565b600082613b1657634e487b7160e01b600052601260045260246000fd5b500490565b6001600160a01b039390931683526020830191909152604082015260600190565b6001600160a01b039384168152919092166020820152604081019190915260600190565b60008060408385031215613b7357600080fd5b50508051602090910151909290915056feddf252ad1be2c89b69c2b068fc378daa952ba7f163c4a11628f55a4df523b3efa26469706673582212209eaf80dc11d599f710db1f0343c10e702169cbdeffd78edbb9bb1054e7b5861564736f6c63430008110033",
  "linkReferences": {},
  "deployedLinkReferences": {}
}