{
  "_format": "hh-sol-artifact-1",
  "contractName": "CErc20",
  "sourceName": "contracts/CErc20.sol",
  "abi": [
    {
      "inputs": [],
      "name": "AcceptAdminPendingAdminCheck",
      "type": "error"
    },
    {
      "inputs": [
        {
          "internalType": "uint256",
          "name": "actualAddAmount",
          "type": "uint256"
        }
      ],
      "name": "AddReservesFactorFreshCheck",
      "type": "error"
    },
    {
      "inputs": [],
      "name": "BorrowCashNotAvailable",
      "type": "error"
    },
    {
      "inputs": [
        {
          "internalType": "uint256",
          "name": "errorCode",
          "type": "uint256"
        }
      ],
      "name": "BorrowComptrollerRejection",
      "type": "error"
    },
    {
      "inputs": [],
      "name": "BorrowFreshnessCheck",
      "type": "error"
    },
    {
      "inputs": [
        {
          "internalType": "uint256",
          "name": "errorCode",
          "type": "uint256"
        }
      ],
      "name": "LiquidateAccrueBorrowInterestFailed",
      "type": "error"
    },
    {
      "inputs": [
        {
          "internalType": "uint256",
          "name": "errorCode",
          "type": "uint256"
        }
      ],
      "name": "LiquidateAccrueCollateralInterestFailed",
      "type": "error"
    },
    {
      "inputs": [],
      "name": "LiquidateCloseAmountIsUintMax",
      "type": "error"
    },
    {
      "inputs": [],
      "name": "LiquidateCloseAmountIsZero",
      "type": "error"
    },
    {
      "inputs": [],
      "name": "LiquidateCollateralFreshnessCheck",
      "type": "error"
    },
    {
      "inputs": [
        {
          "internalType": "uint256",
          "name": "errorCode",
          "type": "uint256"
        }
      ],
      "name": "LiquidateComptrollerRejection",
      "type": "error"
    },
    {
      "inputs": [],
      "name": "LiquidateFreshnessCheck",
      "type": "error"
    },
    {
      "inputs": [],
      "name": "LiquidateLiquidatorIsBorrower",
      "type": "error"
    },
    {
      "inputs": [
        {
          "internalType": "uint256",
          "name": "errorCode",
          "type": "uint256"
        }
      ],
      "name": "LiquidateRepayBorrowFreshFailed",
      "type": "error"
    },
    {
      "inputs": [
        {
          "internalType": "uint256",
          "name": "errorCode",
          "type": "uint256"
        }
      ],
      "name": "LiquidateSeizeComptrollerRejection",
      "type": "error"
    },
    {
      "inputs": [],
      "name": "LiquidateSeizeLiquidatorIsBorrower",
      "type": "error"
    },
    {
      "inputs": [
        {
          "internalType": "uint256",
          "name": "errorCode",
          "type": "uint256"
        }
      ],
      "name": "MintComptrollerRejection",
      "type": "error"
    },
    {
      "inputs": [],
      "name": "MintFreshnessCheck",
      "type": "error"
    },
    {
      "inputs": [
        {
          "internalType": "uint256",
          "name": "errorCode",
          "type": "uint256"
        }
      ],
      "name": "RedeemComptrollerRejection",
      "type": "error"
    },
    {
      "inputs": [],
      "name": "RedeemFreshnessCheck",
      "type": "error"
    },
    {
      "inputs": [],
      "name": "RedeemTransferOutNotPossible",
      "type": "error"
    },
    {
      "inputs": [],
      "name": "ReduceReservesAdminCheck",
      "type": "error"
    },
    {
      "inputs": [],
      "name": "ReduceReservesCashNotAvailable",
      "type": "error"
    },
    {
      "inputs": [],
      "name": "ReduceReservesCashValidation",
      "type": "error"
    },
    {
      "inputs": [],
      "name": "ReduceReservesFreshCheck",
      "type": "error"
    },
    {
      "inputs": [
        {
          "internalType": "uint256",
          "name": "errorCode",
          "type": "uint256"
        }
      ],
      "name": "RepayBorrowComptrollerRejection",
      "type": "error"
    },
    {
      "inputs": [],
      "name": "RepayBorrowFreshnessCheck",
      "type": "error"
    },
    {
      "inputs": [],
      "name": "SetComptrollerOwnerCheck",
      "type": "error"
    },
    {
      "inputs": [],
      "name": "SetInterestRateModelFreshCheck",
      "type": "error"
    },
    {
      "inputs": [],
      "name": "SetInterestRateModelOwnerCheck",
      "type": "error"
    },
    {
      "inputs": [],
      "name": "SetPendingAdminOwnerCheck",
      "type": "error"
    },
    {
      "inputs": [],
      "name": "SetReserveFactorAdminCheck",
      "type": "error"
    },
    {
      "inputs": [],
      "name": "SetReserveFactorBoundsCheck",
      "type": "error"
    },
    {
      "inputs": [],
      "name": "SetReserveFactorFreshCheck",
      "type": "error"
    },
    {
      "inputs": [
        {
          "internalType": "uint256",
          "name": "errorCode",
          "type": "uint256"
        }
      ],
      "name": "TransferComptrollerRejection",
      "type": "error"
    },
    {
      "inputs": [],
      "name": "TransferNotAllowed",
      "type": "error"
    },
    {
      "inputs": [],
      "name": "TransferNotEnough",
      "type": "error"
    },
    {
      "inputs": [],
      "name": "TransferTooMuch",
      "type": "error"
    },
    {
      "anonymous": false,
      "inputs": [
        {
          "indexed": false,
          "internalType": "uint256",
          "name": "cashPrior",
          "type": "uint256"
        },
        {
          "indexed": false,
          "internalType": "uint256",
          "name": "interestAccumulated",
          "type": "uint256"
        },
        {
          "indexed": false,
          "internalType": "uint256",
          "name": "borrowIndex",
          "type": "uint256"
        },
        {
          "indexed": false,
          "internalType": "uint256",
          "name": "totalBorrows",
          "type": "uint256"
        }
      ],
      "name": "AccrueInterest",
      "type": "event"
    },
    {
      "anonymous": false,
      "inputs": [
        {
          "indexed": true,
          "internalType": "address",
          "name": "owner",
          "type": "address"
        },
        {
          "indexed": true,
          "internalType": "address",
          "name": "spender",
          "type": "address"
        },
        {
          "indexed": false,
          "internalType": "uint256",
          "name": "amount",
          "type": "uint256"
        }
      ],
      "name": "Approval",
      "type": "event"
    },
    {
      "anonymous": false,
      "inputs": [
        {
          "indexed": false,
          "internalType": "address",
          "name": "borrower",
          "type": "address"
        },
        {
          "indexed": false,
          "internalType": "uint256",
          "name": "borrowAmount",
          "type": "uint256"
        },
        {
          "indexed": false,
          "internalType": "uint256",
          "name": "accountBorrows",
          "type": "uint256"
        },
        {
          "indexed": false,
          "internalType": "uint256",
          "name": "totalBorrows",
          "type": "uint256"
        }
      ],
      "name": "Borrow",
      "type": "event"
    },
    {
      "anonymous": false,
      "inputs": [
        {
          "indexed": false,
          "internalType": "address",
          "name": "liquidator",
          "type": "address"
        },
        {
          "indexed": false,
          "internalType": "address",
          "name": "borrower",
          "type": "address"
        },
        {
          "indexed": false,
          "internalType": "uint256",
          "name": "repayAmount",
          "type": "uint256"
        },
        {
          "indexed": false,
          "internalType": "address",
          "name": "cTokenCollateral",
          "type": "address"
        },
        {
          "indexed": false,
          "internalType": "uint256",
          "name": "seizeTokens",
          "type": "uint256"
        }
      ],
      "name": "LiquidateBorrow",
      "type": "event"
    },
    {
      "anonymous": false,
      "inputs": [
        {
          "indexed": false,
          "internalType": "address",
          "name": "minter",
          "type": "address"
        },
        {
          "indexed": false,
          "internalType": "uint256",
          "name": "mintAmount",
          "type": "uint256"
        },
        {
          "indexed": false,
          "internalType": "uint256",
          "name": "mintTokens",
          "type": "uint256"
        }
      ],
      "name": "Mint",
      "type": "event"
    },
    {
      "anonymous": false,
      "inputs": [
        {
          "indexed": false,
          "internalType": "address",
          "name": "oldAdmin",
          "type": "address"
        },
        {
          "indexed": false,
          "internalType": "address",
          "name": "newAdmin",
          "type": "address"
        }
      ],
      "name": "NewAdmin",
      "type": "event"
    },
    {
      "anonymous": false,
      "inputs": [
        {
          "indexed": false,
          "internalType": "contract ComptrollerInterface",
          "name": "oldComptroller",
          "type": "address"
        },
        {
          "indexed": false,
          "internalType": "contract ComptrollerInterface",
          "name": "newComptroller",
          "type": "address"
        }
      ],
      "name": "NewComptroller",
      "type": "event"
    },
    {
      "anonymous": false,
      "inputs": [
        {
          "indexed": false,
          "internalType": "contract InterestRateModel",
          "name": "oldInterestRateModel",
          "type": "address"
        },
        {
          "indexed": false,
          "internalType": "contract InterestRateModel",
          "name": "newInterestRateModel",
          "type": "address"
        }
      ],
      "name": "NewMarketInterestRateModel",
      "type": "event"
    },
    {
      "anonymous": false,
      "inputs": [
        {
          "indexed": false,
          "internalType": "address",
          "name": "oldPendingAdmin",
          "type": "address"
        },
        {
          "indexed": false,
          "internalType": "address",
          "name": "newPendingAdmin",
          "type": "address"
        }
      ],
      "name": "NewPendingAdmin",
      "type": "event"
    },
    {
      "anonymous": false,
      "inputs": [
        {
          "indexed": false,
          "internalType": "uint256",
          "name": "oldReserveFactorMantissa",
          "type": "uint256"
        },
        {
          "indexed": false,
          "internalType": "uint256",
          "name": "newReserveFactorMantissa",
          "type": "uint256"
        }
      ],
      "name": "NewReserveFactor",
      "type": "event"
    },
    {
      "anonymous": false,
      "inputs": [
        {
          "indexed": false,
          "internalType": "address",
          "name": "redeemer",
          "type": "address"
        },
        {
          "indexed": false,
          "internalType": "uint256",
          "name": "redeemAmount",
          "type": "uint256"
        },
        {
          "indexed": false,
          "internalType": "uint256",
          "name": "redeemTokens",
          "type": "uint256"
        }
      ],
      "name": "Redeem",
      "type": "event"
    },
    {
      "anonymous": false,
      "inputs": [
        {
          "indexed": false,
          "internalType": "address",
          "name": "payer",
          "type": "address"
        },
        {
          "indexed": false,
          "internalType": "address",
          "name": "borrower",
          "type": "address"
        },
        {
          "indexed": false,
          "internalType": "uint256",
          "name": "repayAmount",
          "type": "uint256"
        },
        {
          "indexed": false,
          "internalType": "uint256",
          "name": "accountBorrows",
          "type": "uint256"
        },
        {
          "indexed": false,
          "internalType": "uint256",
          "name": "totalBorrows",
          "type": "uint256"
        }
      ],
      "name": "RepayBorrow",
      "type": "event"
    },
    {
      "anonymous": false,
      "inputs": [
        {
          "indexed": false,
          "internalType": "address",
          "name": "benefactor",
          "type": "address"
        },
        {
          "indexed": false,
          "internalType": "uint256",
          "name": "addAmount",
          "type": "uint256"
        },
        {
          "indexed": false,
          "internalType": "uint256",
          "name": "newTotalReserves",
          "type": "uint256"
        }
      ],
      "name": "ReservesAdded",
      "type": "event"
    },
    {
      "anonymous": false,
      "inputs": [
        {
          "indexed": false,
          "internalType": "address",
          "name": "admin",
          "type": "address"
        },
        {
          "indexed": false,
          "internalType": "uint256",
          "name": "reduceAmount",
          "type": "uint256"
        },
        {
          "indexed": false,
          "internalType": "uint256",
          "name": "newTotalReserves",
          "type": "uint256"
        }
      ],
      "name": "ReservesReduced",
      "type": "event"
    },
    {
      "anonymous": false,
      "inputs": [
        {
          "indexed": true,
          "internalType": "address",
          "name": "from",
          "type": "address"
        },
        {
          "indexed": true,
          "internalType": "address",
          "name": "to",
          "type": "address"
        },
        {
          "indexed": false,
          "internalType": "uint256",
          "name": "amount",
          "type": "uint256"
        }
      ],
      "name": "Transfer",
      "type": "event"
    },
    {
      "inputs": [],
      "name": "NO_ERROR",
      "outputs": [
        {
          "internalType": "uint256",
          "name": "",
          "type": "uint256"
        }
      ],
      "stateMutability": "view",
      "type": "function"
    },
    {
      "inputs": [],
      "name": "_acceptAdmin",
      "outputs": [
        {
          "internalType": "uint256",
          "name": "",
          "type": "uint256"
        }
      ],
      "stateMutability": "nonpayable",
      "type": "function"
    },
    {
      "inputs": [
        {
          "internalType": "uint256",
          "name": "addAmount",
          "type": "uint256"
        }
      ],
      "name": "_addReserves",
      "outputs": [
        {
          "internalType": "uint256",
          "name": "",
          "type": "uint256"
        }
      ],
      "stateMutability": "nonpayable",
      "type": "function"
    },
    {
      "inputs": [
        {
          "internalType": "address",
          "name": "compLikeDelegatee",
          "type": "address"
        }
      ],
      "name": "_delegateCompLikeTo",
      "outputs": [],
      "stateMutability": "nonpayable",
      "type": "function"
    },
    {
      "inputs": [
        {
          "internalType": "uint256",
          "name": "reduceAmount",
          "type": "uint256"
        }
      ],
      "name": "_reduceReserves",
      "outputs": [
        {
          "internalType": "uint256",
          "name": "",
          "type": "uint256"
        }
      ],
      "stateMutability": "nonpayable",
      "type": "function"
    },
    {
      "inputs": [
        {
          "internalType": "contract ComptrollerInterface",
          "name": "newComptroller",
          "type": "address"
        }
      ],
      "name": "_setComptroller",
      "outputs": [
        {
          "internalType": "uint256",
          "name": "",
          "type": "uint256"
        }
      ],
      "stateMutability": "nonpayable",
      "type": "function"
    },
    {
      "inputs": [
        {
          "internalType": "contract InterestRateModel",
          "name": "newInterestRateModel",
          "type": "address"
        }
      ],
      "name": "_setInterestRateModel",
      "outputs": [
        {
          "internalType": "uint256",
          "name": "",
          "type": "uint256"
        }
      ],
      "stateMutability": "nonpayable",
      "type": "function"
    },
    {
      "inputs": [
        {
          "internalType": "address payable",
          "name": "newPendingAdmin",
          "type": "address"
        }
      ],
      "name": "_setPendingAdmin",
      "outputs": [
        {
          "internalType": "uint256",
          "name": "",
          "type": "uint256"
        }
      ],
      "stateMutability": "nonpayable",
      "type": "function"
    },
    {
      "inputs": [
        {
          "internalType": "uint256",
          "name": "newReserveFactorMantissa",
          "type": "uint256"
        }
      ],
      "name": "_setReserveFactor",
      "outputs": [
        {
          "internalType": "uint256",
          "name": "",
          "type": "uint256"
        }
      ],
      "stateMutability": "nonpayable",
      "type": "function"
    },
    {
      "inputs": [],
      "name": "accrualBlockNumber",
      "outputs": [
        {
          "internalType": "uint256",
          "name": "",
          "type": "uint256"
        }
      ],
      "stateMutability": "view",
      "type": "function"
    },
    {
      "inputs": [],
      "name": "accrueInterest",
      "outputs": [
        {
          "internalType": "uint256",
          "name": "",
          "type": "uint256"
        }
      ],
      "stateMutability": "nonpayable",
      "type": "function"
    },
    {
      "inputs": [],
      "name": "admin",
      "outputs": [
        {
          "internalType": "address payable",
          "name": "",
          "type": "address"
        }
      ],
      "stateMutability": "view",
      "type": "function"
    },
    {
      "inputs": [
        {
          "internalType": "address",
          "name": "owner",
          "type": "address"
        },
        {
          "internalType": "address",
          "name": "spender",
          "type": "address"
        }
      ],
      "name": "allowance",
      "outputs": [
        {
          "internalType": "uint256",
          "name": "",
          "type": "uint256"
        }
      ],
      "stateMutability": "view",
      "type": "function"
    },
    {
      "inputs": [
        {
          "internalType": "address",
          "name": "spender",
          "type": "address"
        },
        {
          "internalType": "uint256",
          "name": "amount",
          "type": "uint256"
        }
      ],
      "name": "approve",
      "outputs": [
        {
          "internalType": "bool",
          "name": "",
          "type": "bool"
        }
      ],
      "stateMutability": "nonpayable",
      "type": "function"
    },
    {
      "inputs": [
        {
          "internalType": "address",
          "name": "owner",
          "type": "address"
        }
      ],
      "name": "balanceOf",
      "outputs": [
        {
          "internalType": "uint256",
          "name": "",
          "type": "uint256"
        }
      ],
      "stateMutability": "view",
      "type": "function"
    },
    {
      "inputs": [
        {
          "internalType": "address",
          "name": "owner",
          "type": "address"
        }
      ],
      "name": "balanceOfUnderlying",
      "outputs": [
        {
          "internalType": "uint256",
          "name": "",
          "type": "uint256"
        }
      ],
      "stateMutability": "nonpayable",
      "type": "function"
    },
    {
      "inputs": [
        {
          "internalType": "uint256",
          "name": "borrowAmount",
          "type": "uint256"
        }
      ],
      "name": "borrow",
      "outputs": [
        {
          "internalType": "uint256",
          "name": "",
          "type": "uint256"
        }
      ],
      "stateMutability": "nonpayable",
      "type": "function"
    },
    {
      "inputs": [
        {
          "internalType": "address",
          "name": "account",
          "type": "address"
        }
      ],
      "name": "borrowBalanceCurrent",
      "outputs": [
        {
          "internalType": "uint256",
          "name": "",
          "type": "uint256"
        }
      ],
      "stateMutability": "nonpayable",
      "type": "function"
    },
    {
      "inputs": [
        {
          "internalType": "address",
          "name": "account",
          "type": "address"
        }
      ],
      "name": "borrowBalanceStored",
      "outputs": [
        {
          "internalType": "uint256",
          "name": "",
          "type": "uint256"
        }
      ],
      "stateMutability": "view",
      "type": "function"
    },
    {
      "inputs": [],
      "name": "borrowIndex",
      "outputs": [
        {
          "internalType": "uint256",
          "name": "",
          "type": "uint256"
        }
      ],
      "stateMutability": "view",
      "type": "function"
    },
    {
      "inputs": [],
      "name": "borrowRatePerBlock",
      "outputs": [
        {
          "internalType": "uint256",
          "name": "",
          "type": "uint256"
        }
      ],
      "stateMutability": "view",
      "type": "function"
    },
    {
      "inputs": [],
      "name": "comptroller",
      "outputs": [
        {
          "internalType": "contract ComptrollerInterface",
          "name": "",
          "type": "address"
        }
      ],
      "stateMutability": "view",
      "type": "function"
    },
    {
      "inputs": [],
      "name": "decimals",
      "outputs": [
        {
          "internalType": "uint8",
          "name": "",
          "type": "uint8"
        }
      ],
      "stateMutability": "view",
      "type": "function"
    },
    {
      "inputs": [],
      "name": "exchangeRateCurrent",
      "outputs": [
        {
          "internalType": "uint256",
          "name": "",
          "type": "uint256"
        }
      ],
      "stateMutability": "nonpayable",
      "type": "function"
    },
    {
      "inputs": [],
      "name": "exchangeRateStored",
      "outputs": [
        {
          "internalType": "uint256",
          "name": "",
          "type": "uint256"
        }
      ],
      "stateMutability": "view",
      "type": "function"
    },
    {
      "inputs": [
        {
          "internalType": "address",
          "name": "account",
          "type": "address"
        }
      ],
      "name": "getAccountSnapshot",
      "outputs": [
        {
          "internalType": "uint256",
          "name": "",
          "type": "uint256"
        },
        {
          "internalType": "uint256",
          "name": "",
          "type": "uint256"
        },
        {
          "internalType": "uint256",
          "name": "",
          "type": "uint256"
        },
        {
          "internalType": "uint256",
          "name": "",
          "type": "uint256"
        }
      ],
      "stateMutability": "view",
      "type": "function"
    },
    {
      "inputs": [],
      "name": "getCash",
      "outputs": [
        {
          "internalType": "uint256",
          "name": "",
          "type": "uint256"
        }
      ],
      "stateMutability": "view",
      "type": "function"
    },
    {
      "inputs": [
        {
          "internalType": "address",
          "name": "underlying_",
          "type": "address"
        },
        {
          "internalType": "contract ComptrollerInterface",
          "name": "comptroller_",
          "type": "address"
        },
        {
          "internalType": "contract InterestRateModel",
          "name": "interestRateModel_",
          "type": "address"
        },
        {
          "internalType": "uint256",
          "name": "initialExchangeRateMantissa_",
          "type": "uint256"
        },
        {
          "internalType": "string",
          "name": "name_",
          "type": "string"
        },
        {
          "internalType": "string",
          "name": "symbol_",
          "type": "string"
        },
        {
          "internalType": "uint8",
          "name": "decimals_",
          "type": "uint8"
        }
      ],
      "name": "initialize",
      "outputs": [],
      "stateMutability": "nonpayable",
      "type": "function"
    },
    {
      "inputs": [
        {
          "internalType": "contract ComptrollerInterface",
          "name": "comptroller_",
          "type": "address"
        },
        {
          "internalType": "contract InterestRateModel",
          "name": "interestRateModel_",
          "type": "address"
        },
        {
          "internalType": "uint256",
          "name": "initialExchangeRateMantissa_",
          "type": "uint256"
        },
        {
          "internalType": "string",
          "name": "name_",
          "type": "string"
        },
        {
          "internalType": "string",
          "name": "symbol_",
          "type": "string"
        },
        {
          "internalType": "uint8",
          "name": "decimals_",
          "type": "uint8"
        }
      ],
      "name": "initialize",
      "outputs": [],
      "stateMutability": "nonpayable",
      "type": "function"
    },
    {
      "inputs": [],
      "name": "interestRateModel",
      "outputs": [
        {
          "internalType": "contract InterestRateModel",
          "name": "",
          "type": "address"
        }
      ],
      "stateMutability": "view",
      "type": "function"
    },
    {
      "inputs": [],
      "name": "isCToken",
      "outputs": [
        {
          "internalType": "bool",
          "name": "",
          "type": "bool"
        }
      ],
      "stateMutability": "view",
      "type": "function"
    },
    {
      "inputs": [
        {
          "internalType": "address",
          "name": "borrower",
          "type": "address"
        },
        {
          "internalType": "uint256",
          "name": "repayAmount",
          "type": "uint256"
        },
        {
          "internalType": "contract CTokenInterface",
          "name": "cTokenCollateral",
          "type": "address"
        }
      ],
      "name": "liquidateBorrow",
      "outputs": [
        {
          "internalType": "uint256",
          "name": "",
          "type": "uint256"
        }
      ],
      "stateMutability": "nonpayable",
      "type": "function"
    },
    {
      "inputs": [
        {
          "internalType": "uint256",
          "name": "mintAmount",
          "type": "uint256"
        }
      ],
      "name": "mint",
      "outputs": [
        {
          "internalType": "uint256",
          "name": "",
          "type": "uint256"
        }
      ],
      "stateMutability": "nonpayable",
      "type": "function"
    },
    {
      "inputs": [],
      "name": "name",
      "outputs": [
        {
          "internalType": "string",
          "name": "",
          "type": "string"
        }
      ],
      "stateMutability": "view",
      "type": "function"
    },
    {
      "inputs": [],
      "name": "pendingAdmin",
      "outputs": [
        {
          "internalType": "address payable",
          "name": "",
          "type": "address"
        }
      ],
      "stateMutability": "view",
      "type": "function"
    },
    {
      "inputs": [],
      "name": "protocolSeizeShareMantissa",
      "outputs": [
        {
          "internalType": "uint256",
          "name": "",
          "type": "uint256"
        }
      ],
      "stateMutability": "view",
      "type": "function"
    },
    {
      "inputs": [
        {
          "internalType": "uint256",
          "name": "redeemTokens",
          "type": "uint256"
        }
      ],
      "name": "redeem",
      "outputs": [
        {
          "internalType": "uint256",
          "name": "",
          "type": "uint256"
        }
      ],
      "stateMutability": "nonpayable",
      "type": "function"
    },
    {
      "inputs": [
        {
          "internalType": "uint256",
          "name": "redeemAmount",
          "type": "uint256"
        }
      ],
      "name": "redeemUnderlying",
      "outputs": [
        {
          "internalType": "uint256",
          "name": "",
          "type": "uint256"
        }
      ],
      "stateMutability": "nonpayable",
      "type": "function"
    },
    {
      "inputs": [
        {
          "internalType": "uint256",
          "name": "repayAmount",
          "type": "uint256"
        }
      ],
      "name": "repayBorrow",
      "outputs": [
        {
          "internalType": "uint256",
          "name": "",
          "type": "uint256"
        }
      ],
      "stateMutability": "nonpayable",
      "type": "function"
    },
    {
      "inputs": [
        {
          "internalType": "address",
          "name": "borrower",
          "type": "address"
        },
        {
          "internalType": "uint256",
          "name": "repayAmount",
          "type": "uint256"
        }
      ],
      "name": "repayBorrowBehalf",
      "outputs": [
        {
          "internalType": "uint256",
          "name": "",
          "type": "uint256"
        }
      ],
      "stateMutability": "nonpayable",
      "type": "function"
    },
    {
      "inputs": [],
      "name": "reserveFactorMantissa",
      "outputs": [
        {
          "internalType": "uint256",
          "name": "",
          "type": "uint256"
        }
      ],
      "stateMutability": "view",
      "type": "function"
    },
    {
      "inputs": [
        {
          "internalType": "address",
          "name": "liquidator",
          "type": "address"
        },
        {
          "internalType": "address",
          "name": "borrower",
          "type": "address"
        },
        {
          "internalType": "uint256",
          "name": "seizeTokens",
          "type": "uint256"
        }
      ],
      "name": "seize",
      "outputs": [
        {
          "internalType": "uint256",
          "name": "",
          "type": "uint256"
        }
      ],
      "stateMutability": "nonpayable",
      "type": "function"
    },
    {
      "inputs": [],
      "name": "supplyRatePerBlock",
      "outputs": [
        {
          "internalType": "uint256",
          "name": "",
          "type": "uint256"
        }
      ],
      "stateMutability": "view",
      "type": "function"
    },
    {
      "inputs": [
        {
          "internalType": "contract EIP20NonStandardInterface",
          "name": "token",
          "type": "address"
        }
      ],
      "name": "sweepToken",
      "outputs": [],
      "stateMutability": "nonpayable",
      "type": "function"
    },
    {
      "inputs": [],
      "name": "symbol",
      "outputs": [
        {
          "internalType": "string",
          "name": "",
          "type": "string"
        }
      ],
      "stateMutability": "view",
      "type": "function"
    },
    {
      "inputs": [],
      "name": "totalBorrows",
      "outputs": [
        {
          "internalType": "uint256",
          "name": "",
          "type": "uint256"
        }
      ],
      "stateMutability": "view",
      "type": "function"
    },
    {
      "inputs": [],
      "name": "totalBorrowsCurrent",
      "outputs": [
        {
          "internalType": "uint256",
          "name": "",
          "type": "uint256"
        }
      ],
      "stateMutability": "nonpayable",
      "type": "function"
    },
    {
      "inputs": [],
      "name": "totalReserves",
      "outputs": [
        {
          "internalType": "uint256",
          "name": "",
          "type": "uint256"
        }
      ],
      "stateMutability": "view",
      "type": "function"
    },
    {
      "inputs": [],
      "name": "totalSupply",
      "outputs": [
        {
          "internalType": "uint256",
          "name": "",
          "type": "uint256"
        }
      ],
      "stateMutability": "view",
      "type": "function"
    },
    {
      "inputs": [
        {
          "internalType": "address",
          "name": "dst",
          "type": "address"
        },
        {
          "internalType": "uint256",
          "name": "amount",
          "type": "uint256"
        }
      ],
      "name": "transfer",
      "outputs": [
        {
          "internalType": "bool",
          "name": "",
          "type": "bool"
        }
      ],
      "stateMutability": "nonpayable",
      "type": "function"
    },
    {
      "inputs": [
        {
          "internalType": "address",
          "name": "src",
          "type": "address"
        },
        {
          "internalType": "address",
          "name": "dst",
          "type": "address"
        },
        {
          "internalType": "uint256",
          "name": "amount",
          "type": "uint256"
        }
      ],
      "name": "transferFrom",
      "outputs": [
        {
          "internalType": "bool",
          "name": "",
          "type": "bool"
        }
      ],
      "stateMutability": "nonpayable",
      "type": "function"
    },
    {
      "inputs": [],
      "name": "underlying",
      "outputs": [
        {
          "internalType": "address",
          "name": "",
          "type": "address"
        }
      ],
      "stateMutability": "view",
      "type": "function"
    }
  ],
  "bytecode": "0x608060405234801561001057600080fd5b50613a21806100206000396000f3fe608060405234801561001057600080fd5b506004361061030c5760003560e01c80637f1e06be1161019d578063bd6d894d116100e9578063f2b3abbd116100a2578063f851a4401161007c578063f851a440146106a8578063f8f9da28146106c0578063fca7820b146106c8578063fe9c44ae146106db57600080fd5b8063f2b3abbd1461066f578063f3fdb15a14610682578063f5e3c4621461069557600080fd5b8063bd6d894d146105cd578063c37f68e2146105d5578063c5ebeaec14610608578063db006a751461061b578063dd62ed3e1461062e578063e9c714f21461066757600080fd5b8063a0712d6811610156578063aa5af0fd11610130578063aa5af0fd14610596578063ae9d70b01461059f578063b2a02ff1146105a7578063b71d1a0c146105ba57600080fd5b8063a0712d6814610568578063a6afed951461057b578063a9059cbb1461058357600080fd5b80637f1e06be1461050b578063852a12e31461051e5780638f840ddd1461053157806395d89b411461053a57806395dd91931461054257806399d8c1b41461055557600080fd5b80633af9e6691161025c578063601a0bf1116102155780636c540baf116101ef5780636c540baf146104be5780636f307dc3146104c757806370a08231146104da57806373acee981461050357600080fd5b8063601a0bf1146104955780636752e702146104a857806369ab3250146104b657600080fd5b80633af9e669146104385780633b1d21a21461044b5780633e941010146104535780634576b5db1461046657806347bd3718146104795780635fe3b5671461048257600080fd5b8063182df0f5116102c957806323b872dd116102a357806323b872dd146103c85780632608f818146103db57806326782247146103ee578063313ce5671461041957600080fd5b8063182df0f5146103985780631a31d465146103a05780631be19560146103b557600080fd5b806306fdde0314610311578063095ea7b31461032f5780630e75270214610352578063173b99041461037357806317bfdfbc1461037c57806318160ddd1461038f575b600080fd5b6103196106e3565b60405161032691906133b4565b60405180910390f35b61034261033d36600461341a565b610771565b6040519015158152602001610326565b610365610360366004613446565b6107e1565b604051908152602001610326565b61036560085481565b61036561038a36600461345f565b6107f4565b610365600d5481565b610365610850565b6103b36103ae366004613535565b61085f565b005b6103b36103c336600461345f565b61090b565b6103426103d63660046135eb565b610ad7565b6103656103e936600461341a565b610b27565b600454610401906001600160a01b031681565b6040516001600160a01b039091168152602001610326565b6003546104269060ff1681565b60405160ff9091168152602001610326565b61036561044636600461345f565b610b3c565b610365610b82565b610365610461366004613446565b610b8c565b61036561047436600461345f565b610b97565b610365600b5481565b600554610401906001600160a01b031681565b6103656104a3366004613446565b610ce9565b610365666379da05b6000081565b610365600081565b61036560095481565b601154610401906001600160a01b031681565b6103656104e836600461345f565b6001600160a01b03166000908152600e602052604090205490565b610365610d28565b6103b361051936600461345f565b610d72565b61036561052c366004613446565b610e49565b610365600c5481565b610319610e54565b61036561055036600461345f565b610e61565b6103b361056336600461362c565b610e6c565b610365610576366004613446565b6110b9565b6103656110c4565b61034261059136600461341a565b6112b1565b610365600a5481565b610365611300565b6103656105b53660046135eb565b611398565b6103656105c836600461345f565b6113e7565b610365611474565b6105e86105e336600461345f565b6114c4565b604080519485526020850193909352918301526060820152608001610326565b610365610616366004613446565b611505565b610365610629366004613446565b611510565b61036561063c3660046136ce565b6001600160a01b039182166000908152600f6020908152604080832093909416825291909152205490565b61036561151b565b61036561067d36600461345f565b611622565b600654610401906001600160a01b031681565b6103656106a3366004613707565b611636565b6003546104019061010090046001600160a01b031681565b61036561164d565b6103656106d6366004613446565b6116a0565b610342600181565b600180546106f090613749565b80601f016020809104026020016040519081016040528092919081815260200182805461071c90613749565b80156107695780601f1061073e57610100808354040283529160200191610769565b820191906000526020600020905b81548152906001019060200180831161074c57829003601f168201915b505050505081565b336000818152600f602090815260408083206001600160a01b03871680855292528083208590555191929182907f8c5be1e5ebec7d5bd14f71427d1e84f3dd0314c0f7b2291e5b200ac8c7c3b925906107cd9087815260200190565b60405180910390a360019150505b92915050565b60006107ec826116df565b506000919050565b6000805460ff166108205760405162461bcd60e51b815260040161081790613783565b60405180910390fd5b6000805460ff191690556108326110c4565b5061083c82610e61565b90506000805460ff19166001179055919050565b600061085a611730565b905090565b60038054610100600160a81b0319163361010002179055610884868686868686610e6c565b601180546001600160a01b0319166001600160a01b038916908117909155604080516318160ddd60e01b815290516318160ddd916004808201926020929091908290030181865afa1580156108dd573d6000803e3d6000fd5b505050506040513d601f19601f8201168201806040525081019061090191906137a7565b5050505050505050565b60035461010090046001600160a01b031633146109825760405162461bcd60e51b815260206004820152602f60248201527f4345726332303a3a7377656570546f6b656e3a206f6e6c792061646d696e206360448201526e616e20737765657020746f6b656e7360881b6064820152608401610817565b6011546001600160a01b03908116908216036109fb5760405162461bcd60e51b815260206004820152603260248201527f4345726332303a3a7377656570546f6b656e3a2063616e206e6f74207377656560448201527138103ab73232b9363cb4b733903a37b5b2b760711b6064820152608401610817565b6040516370a0823160e01b81523060048201526000906001600160a01b038316906370a0823190602401602060405180830381865afa158015610a42573d6000803e3d6000fd5b505050506040513d601f19601f82011682018060405250810190610a6691906137a7565b60035460405163a9059cbb60e01b81526001600160a01b03610100909204821660048201526024810183905291925083169063a9059cbb90604401600060405180830381600087803b158015610abb57600080fd5b505af1158015610acf573d6000803e3d6000fd5b505050505050565b6000805460ff16610afa5760405162461bcd60e51b815260040161081790613783565b6000805460ff19168155610b1033868686611798565b1490506000805460ff191660011790559392505050565b6000610b3383836119c4565b50600092915050565b6000806040518060200160405280610b52611474565b90526001600160a01b0384166000908152600e6020526040902054909150610b7b908290611a16565b9392505050565b600061085a611a36565b60006107db82611aab565b60035460009061010090046001600160a01b03163314610bca5760405163d219dc1f60e01b815260040160405180910390fd5b60055460408051623f1ee960e11b815290516001600160a01b0392831692851691627e3dd29160048083019260209291908290030181865afa158015610c14573d6000803e3d6000fd5b505050506040513d601f19601f82011682018060405250810190610c3891906137c0565b610c845760405162461bcd60e51b815260206004820152601c60248201527f6d61726b6572206d6574686f642072657475726e65642066616c7365000000006044820152606401610817565b600580546001600160a01b0319166001600160a01b0385811691821790925560408051928416835260208301919091527f7ac369dbd14fa5ea3f473ed67cc9d598964a77501540ba6751eb0b3decf5870d91015b60405180910390a150600092915050565b6000805460ff16610d0c5760405162461bcd60e51b815260040161081790613783565b6000805460ff19169055610d1e6110c4565b5061083c82611b02565b6000805460ff16610d4b5760405162461bcd60e51b815260040161081790613783565b6000805460ff19169055610d5d6110c4565b5050600b546000805460ff1916600117905590565b60035461010090046001600160a01b03163314610de75760405162461bcd60e51b815260206004820152602d60248201527f6f6e6c79207468652061646d696e206d6179207365742074686520636f6d702d60448201526c6c696b652064656c656761746560981b6064820152608401610817565b6011546040516317066a5760e21b81526001600160a01b03838116600483015290911690635c19a95c90602401600060405180830381600087803b158015610e2e57600080fd5b505af1158015610e42573d6000803e3d6000fd5b5050505050565b60006107ec82611c1d565b600280546106f090613749565b60006107db82611c6e565b60035461010090046001600160a01b03163314610ed75760405162461bcd60e51b8152602060048201526024808201527f6f6e6c792061646d696e206d617920696e697469616c697a6520746865206d616044820152631c9ad95d60e21b6064820152608401610817565b600954158015610ee75750600a54155b610f3f5760405162461bcd60e51b815260206004820152602360248201527f6d61726b6574206d6179206f6e6c7920626520696e697469616c697a6564206f6044820152626e636560e81b6064820152608401610817565b600784905583610faa5760405162461bcd60e51b815260206004820152603060248201527f696e697469616c2065786368616e67652072617465206d75737420626520677260448201526f32b0ba32b9103a3430b7103d32b9379760811b6064820152608401610817565b6000610fb587610b97565b905080156110055760405162461bcd60e51b815260206004820152601a60248201527f73657474696e6720636f6d7074726f6c6c6572206661696c65640000000000006044820152606401610817565b43600955670de0b6b3a7640000600a5561101e86611cba565b905080156110795760405162461bcd60e51b815260206004820152602260248201527f73657474696e6720696e7465726573742072617465206d6f64656c206661696c604482015261195960f21b6064820152608401610817565b6001611085858261382d565b506002611092848261382d565b50506003805460ff90921660ff199283161790556000805490911660011790555050505050565b60006107ec82611e2f565b60095460009043908181036110dc5760009250505090565b60006110e6611a36565b600b54600c54600a546006546040516315f2405360e01b81526004810186905260248101859052604481018490529495509293919290916000916001600160a01b0316906315f2405390606401602060405180830381865afa158015611150573d6000803e3d6000fd5b505050506040513d601f19601f8201168201806040525081019061117491906137a7565b905065048c273950008111156111cc5760405162461bcd60e51b815260206004820152601c60248201527f626f72726f772072617465206973206162737572646c792068696768000000006044820152606401610817565b60006111d88789613903565b905060006111f460405180602001604052808581525083611e6e565b905060006112028288611a16565b905060006112108883613916565b9050600061122f6040518060200160405280600854815250848a611e9f565b9050600061123e85898a611e9f565b60098e9055600a819055600b849055600c839055604080518d815260208101879052908101829052606081018590529091507f4dec04e750ca11537cabcd8a9eab06494de08da3735bc8871cd41250e190bc049060800160405180910390a160009d505050505050505050505050505090565b6000805460ff166112d45760405162461bcd60e51b815260040161081790613783565b6000805460ff191681556112ea33808686611798565b1490506000805460ff1916600117905592915050565b6006546000906001600160a01b031663b816881661131c611a36565b600b54600c546008546040516001600160e01b031960e087901b16815260048101949094526024840192909252604483015260648201526084015b602060405180830381865afa158015611374573d6000803e3d6000fd5b505050506040513d601f19601f8201168201806040525081019061085a91906137a7565b6000805460ff166113bb5760405162461bcd60e51b815260040161081790613783565b6000805460ff191690556113d133858585611ec0565b50600080805460ff191660011790559392505050565b60035460009061010090046001600160a01b0316331461141a57604051635cb56c2b60e01b815260040160405180910390fd5b600480546001600160a01b038481166001600160a01b031983168117909355604080519190921680825260208201939093527fca4f2f25d0898edd99413412fb94012f9e54ec8142f9b093e7720646a95b16a99101610cd8565b6000805460ff166114975760405162461bcd60e51b815260040161081790613783565b6000805460ff191690556114a96110c4565b506114b2610850565b90506000805460ff1916600117905590565b6001600160a01b0381166000908152600e602052604081205481908190819081906114ee87611c6e565b6114f6611730565b93509350935093509193509193565b60006107ec82612138565b60006107ec82612177565b6004546000906001600160a01b031633141580611536575033155b1561155457604051631ba24f2960e21b815260040160405180910390fd5b60038054600480546001600160a01b03808216610100818102610100600160a81b0319871617968790556001600160a01b031990931690935560408051948390048216808652929095041660208401529290917ff9ffabca9c8276e99321725bcb43fb076a6c66a54b7f21c4e8146d8519b417dc910160405180910390a1600454604080516001600160a01b03808516825290921660208301527fca4f2f25d0898edd99413412fb94012f9e54ec8142f9b093e7720646a95b16a9910160405180910390a160009250505090565b600061162c6110c4565b506107db82611cba565b60006116438484846121b8565b5060009392505050565b6006546000906001600160a01b03166315f24053611669611a36565b600b54600c546040516001600160e01b031960e086901b168152600481019390935260248301919091526044820152606401611357565b6000805460ff166116c35760405162461bcd60e51b815260040161081790613783565b6000805460ff191690556116d56110c4565b5061083c82612296565b60005460ff166117015760405162461bcd60e51b815260040161081790613783565b6000805460ff191690556117136110c4565b5061171f333383612352565b50506000805460ff19166001179055565b600d5460009080820361174557505060075490565b600061174f611a36565b90506000600c54600b54836117649190613916565b61176e9190613903565b9050600083611785670de0b6b3a764000084613929565b61178f9190613940565b95945050505050565b6005546040516317b9b84b60e31b81523060048201526001600160a01b038581166024830152848116604483015260648201849052600092839291169063bdcdc258906084016020604051808303816000875af11580156117fd573d6000803e3d6000fd5b505050506040513d601f19601f8201168201806040525081019061182191906137a7565b905080156118455760405163089d427760e11b815260048101829052602401610817565b836001600160a01b0316856001600160a01b03160361187757604051638cd22d1960e01b815260040160405180910390fd5b6000856001600160a01b0316876001600160a01b03160361189b57506000196118c3565b506001600160a01b038086166000908152600f60209081526040808320938a16835292905220545b60006118cf8583613903565b6001600160a01b0388166000908152600e6020526040812054919250906118f7908790613903565b6001600160a01b0388166000908152600e60205260408120549192509061191f908890613916565b6001600160a01b03808b166000908152600e6020526040808220869055918b1681522081905590506000198414611979576001600160a01b03808a166000908152600f60209081526040808320938e168352929052208390555b876001600160a01b0316896001600160a01b03166000805160206139cc833981519152896040516119ac91815260200190565b60405180910390a35060009998505050505050505050565b60005460ff166119e65760405162461bcd60e51b815260040161081790613783565b6000805460ff191690556119f86110c4565b50611a04338383612352565b50506000805460ff1916600117905550565b600080611a238484611e6e565b9050611a2e816124fb565b949350505050565b6011546040516370a0823160e01b81523060048201526000916001600160a01b03169081906370a0823190602401602060405180830381865afa158015611a81573d6000803e3d6000fd5b505050506040513d601f19601f82011682018060405250810190611aa591906137a7565b91505090565b6000805460ff16611ace5760405162461bcd60e51b815260040161081790613783565b6000805460ff19169055611ae06110c4565b50611aea82612513565b5050600090506000805460ff19166001179055919050565b600354600090819061010090046001600160a01b03163314611b3757604051630f7e5e6d60e41b815260040160405180910390fd5b4360095414611b5957604051630dff50cb60e41b815260040160405180910390fd5b82611b62611a36565b1015611b8157604051633345e99960e01b815260040160405180910390fd5b600c54831115611ba4576040516378d2980560e11b815260040160405180910390fd5b82600c54611bb29190613903565b600c819055600354909150611bd59061010090046001600160a01b0316846125a7565b7f3bad0c59cf2f06e7314077049f48a93578cd16f5ef92329f1dab1420a99c177e600360019054906101000a90046001600160a01b03168483604051610cd893929190613962565b60005460ff16611c3f5760405162461bcd60e51b815260040161081790613783565b6000805460ff19169055611c516110c4565b50611c5e33600083612691565b506000805460ff19166001179055565b6001600160a01b038116600090815260106020526040812080548203611c975750600092915050565b600a548154600091611ca891613929565b9050816001015481611a2e9190613940565b600354600090819061010090046001600160a01b03163314611cef5760405163407fded560e01b815260040160405180910390fd5b4360095414611d1157604051630be2a5cb60e11b815260040160405180910390fd5b600660009054906101000a90046001600160a01b03169050826001600160a01b0316632191f92a6040518163ffffffff1660e01b8152600401602060405180830381865afa158015611d67573d6000803e3d6000fd5b505050506040513d601f19601f82011682018060405250810190611d8b91906137c0565b611dd75760405162461bcd60e51b815260206004820152601c60248201527f6d61726b6572206d6574686f642072657475726e65642066616c7365000000006044820152606401610817565b600680546001600160a01b0319166001600160a01b0385811691821790925560408051928416835260208301919091527fedffc32e068c7c95dfd4bdfd5c4d939a084d6b11c4199eac8436ed234d72f9269101610cd8565b60005460ff16611e515760405162461bcd60e51b815260040161081790613783565b6000805460ff19169055611e636110c4565b50611c5e338261296e565b6040805160208101909152600081526040518060200160405280611e96856000015185612b24565b90529392505050565b600080611eac8585611e6e565b905061178f611eba826124fb565b84612b30565b60055460405163d02f735160e01b81523060048201526001600160a01b0386811660248301528581166044830152848116606483015260848201849052600092169063d02f73519060a4016020604051808303816000875af1158015611f2a573d6000803e3d6000fd5b505050506040513d601f19601f82011682018060405250810190611f4e91906137a7565b90508015611f72576040516363e00e3360e11b815260048101829052602401610817565b836001600160a01b0316836001600160a01b031603611fa457604051633a94626760e11b815260040160405180910390fd5b6000611fc5836040518060200160405280666379da05b60000815250612b3c565b90506000611fd38285613903565b905060006040518060200160405280611fea611730565b905290506000611ffa8285611a16565b9050600081600c5461200c9190613916565b600c819055600d54909150612022908690613903565b600d556001600160a01b0388166000908152600e6020526040902054612049908890613903565b6001600160a01b03808a166000908152600e602052604080822093909355908b1681522054612079908590613916565b6001600160a01b03808b166000818152600e602052604090819020939093559151908a16906000805160206139cc833981519152906120bb9088815260200190565b60405180910390a360405185815230906001600160a01b038a16906000805160206139cc8339815191529060200160405180910390a37fa91e67c5ea634cd43a12c5a482724b03de01e85ca68702a53d0c2f45cb7c1dc530838360405161212493929190613962565b60405180910390a150505050505050505050565b60005460ff1661215a5760405162461bcd60e51b815260040161081790613783565b6000805460ff1916905561216c6110c4565b50611c5e3382612b5f565b60005460ff166121995760405162461bcd60e51b815260040161081790613783565b6000805460ff191690556121ab6110c4565b50611c5e33826000612691565b60005460ff166121da5760405162461bcd60e51b815260040161081790613783565b6000805460ff191690556121ec6110c4565b506000816001600160a01b031663a6afed956040518163ffffffff1660e01b81526004016020604051808303816000875af115801561222f573d6000803e3d6000fd5b505050506040513d601f19601f8201168201806040525081019061225391906137a7565b9050801561227757604051633eea49b760e11b815260048101829052602401610817565b61228333858585612cfe565b50506000805460ff191660011790555050565b60035460009061010090046001600160a01b031633146122c957604051631205b57b60e11b815260040160405180910390fd5b43600954146122eb57604051637dfca6b760e11b815260040160405180910390fd5b670de0b6b3a76400008211156123145760405163717220f360e11b815260040160405180910390fd5b600880549083905560408051828152602081018590527faaa68312e2ea9d50e16af5068410ab56e1a1fd06037b1a35664812c30f8214609101610cd8565b600554604051631200453160e11b81523060048201526001600160a01b03858116602483015284811660448301526064820184905260009283929116906324008a62906084016020604051808303816000875af11580156123b7573d6000803e3d6000fd5b505050506040513d601f19601f820116820180604052508101906123db91906137a7565b905080156123ff57604051638c81362d60e01b815260048101829052602401610817565b43600954146124215760405163c9021e2f60e01b815260040160405180910390fd5b600061242c85611c6e565b90506000600019851461243f5784612441565b815b9050600061244f88836131b8565b9050600061245d8285613903565b9050600082600b5461246f9190613903565b6001600160a01b038a8116600081815260106020908152604091829020878155600a54600190910155600b8590558151938f168452830191909152810185905260608101849052608081018290529091507f1a2a22cb034d26d1854bdc6666a5b91fe25efbbb5dcad3b0355478d6f5c362a19060a00160405180910390a1509098975050505050505050565b80516000906107db90670de0b6b3a764000090613940565b6000808080436009541461253d576040516338acf79960e01b815260048101829052602401610817565b61254733866131b8565b905080600c546125579190613916565b915081600c819055507fa91e67c5ea634cd43a12c5a482724b03de01e85ca68702a53d0c2f45cb7c1dc533828460405161259393929190613962565b60405180910390a160009590945092505050565b60115460405163a9059cbb60e01b81526001600160a01b0384811660048301526024820184905290911690819063a9059cbb90604401600060405180830381600087803b1580156125f757600080fd5b505af115801561260b573d6000803e3d6000fd5b5050505060003d60008114612627576020811461263157600080fd5b600019915061263d565b60206000803e60005191505b508061268b5760405162461bcd60e51b815260206004820152601960248201527f544f4b454e5f5452414e534645525f4f55545f4641494c4544000000000000006044820152606401610817565b50505050565b81158061269c575080155b6127055760405162461bcd60e51b815260206004820152603460248201527f6f6e65206f662072656465656d546f6b656e73496e206f722072656465656d416044820152736d6f756e74496e206d757374206265207a65726f60601b6064820152608401610817565b6000604051806020016040528061271a611730565b90529050600080841561273b578491506127348386611a16565b905061274b565b612745848461338f565b91508390505b60055460405163eabe7d9160e01b81526000916001600160a01b03169063eabe7d91906127809030908b908890600401613983565b6020604051808303816000875af115801561279f573d6000803e3d6000fd5b505050506040513d601f19601f820116820180604052508101906127c391906137a7565b905080156127e75760405163480f424760e01b815260048101829052602401610817565b4360095414612809576040516397b5cfcd60e01b815260040160405180910390fd5b81612812611a36565b1015612831576040516391240a1b60e01b815260040160405180910390fd5b82600d5461283f9190613903565b600d556001600160a01b0387166000908152600e6020526040902054612866908490613903565b6001600160a01b0388166000908152600e602052604090205561288987836125a7565b60405183815230906001600160a01b038916906000805160206139cc8339815191529060200160405180910390a37fe5b754fb1abb7f01b499791d0b820ae3b6af3424ac1c59768edb53f4ec31a9298783856040516128ea93929190613962565b60405180910390a16005546040516351dff98960e01b81523060048201526001600160a01b0389811660248301526044820185905260648201869052909116906351dff98990608401600060405180830381600087803b15801561294d57600080fd5b505af1158015612961573d6000803e3d6000fd5b5050505050505050505050565b600554604051634ef4c3e160e01b81526000916001600160a01b031690634ef4c3e1906129a390309087908790600401613983565b6020604051808303816000875af11580156129c2573d6000803e3d6000fd5b505050506040513d601f19601f820116820180604052508101906129e691906137a7565b90508015612a0a576040516349abd4fd60e01b815260048101829052602401610817565b4360095414612a2c576040516338d8859760e01b815260040160405180910390fd5b60006040518060200160405280612a41611730565b905290506000612a5185856131b8565b90506000612a5f828461338f565b905080600d54612a6f9190613916565b600d556001600160a01b0386166000908152600e6020526040902054612a96908290613916565b6001600160a01b0387166000908152600e60205260409081902091909155517f4c209b5fc8ad50758f13e2e1088ba56a560dff690a1c6fef26394f4c03821c4f90612ae690889085908590613962565b60405180910390a16040518181526001600160a01b0387169030906000805160206139cc8339815191529060200160405180910390a3505050505050565b6000610b7b8284613929565b6000610b7b8284613916565b6000670de0b6b3a7640000612b55848460000151612b24565b610b7b9190613940565b60055460405163368f515360e21b81526000916001600160a01b03169063da3d454c90612b9490309087908790600401613983565b6020604051808303816000875af1158015612bb3573d6000803e3d6000fd5b505050506040513d601f19601f82011682018060405250810190612bd791906137a7565b90508015612bfb5760405163918db40f60e01b815260048101829052602401610817565b4360095414612c1d57604051630e8d8c6160e21b815260040160405180910390fd5b81612c26611a36565b1015612c45576040516348c2588160e01b815260040160405180910390fd5b6000612c5084611c6e565b90506000612c5e8483613916565b9050600084600b54612c709190613916565b6001600160a01b0387166000908152601060205260409020838155600a54600190910155600b8190559050612ca586866125a7565b604080516001600160a01b038816815260208101879052908101839052606081018290527f13ed6866d4e1ee6da46f845c46d7e54120883d75c5ea9a2dacc1c4ca8984ab809060800160405180910390a1505050505050565b600554604051632fe3f38f60e11b81523060048201526001600160a01b03838116602483015286811660448301528581166064830152608482018590526000921690635fc7e71e9060a4016020604051808303816000875af1158015612d68573d6000803e3d6000fd5b505050506040513d601f19601f82011682018060405250810190612d8c91906137a7565b90508015612db057604051630a14d17960e11b815260048101829052602401610817565b4360095414612dd2576040516380965b1b60e01b815260040160405180910390fd5b43826001600160a01b0316636c540baf6040518163ffffffff1660e01b8152600401602060405180830381865afa158015612e11573d6000803e3d6000fd5b505050506040513d601f19601f82011682018060405250810190612e3591906137a7565b14612e5357604051631046f38d60e31b815260040160405180910390fd5b846001600160a01b0316846001600160a01b031603612e8557604051631bd1a62160e21b815260040160405180910390fd5b82600003612ea65760405163d29da7ef60e01b815260040160405180910390fd5b6000198303612ec857604051635982c5bb60e11b815260040160405180910390fd5b6000612ed5868686612352565b60055460405163c488847b60e01b815291925060009182916001600160a01b03169063c488847b90612f0f90309089908890600401613983565b6040805180830381865afa158015612f2b573d6000803e3d6000fd5b505050506040513d601f19601f82011682018060405250810190612f4f91906139a7565b9150915060008214612fbf5760405162461bcd60e51b815260206004820152603360248201527f4c49515549444154455f434f4d5054524f4c4c45525f43414c43554c4154455f604482015272105353d5539517d4d152569157d19052531151606a1b6064820152608401610817565b6040516370a0823160e01b81526001600160a01b0388811660048301528291908716906370a0823190602401602060405180830381865afa158015613008573d6000803e3d6000fd5b505050506040513d601f19601f8201168201806040525081019061302c91906137a7565b101561307a5760405162461bcd60e51b815260206004820152601860248201527f4c49515549444154455f5345495a455f544f4f5f4d55434800000000000000006044820152606401610817565b306001600160a01b0386160361309b5761309630898984611ec0565b613155565b60405163b2a02ff160e01b81526000906001600160a01b0387169063b2a02ff1906130ce908c908c908790600401613983565b6020604051808303816000875af11580156130ed573d6000803e3d6000fd5b505050506040513d601f19601f8201168201806040525081019061311191906137a7565b146131555760405162461bcd60e51b81526020600482015260146024820152731d1bdad95b881cd95a5e9d5c994819985a5b195960621b6044820152606401610817565b604080516001600160a01b038a811682528981166020830152818301869052871660608201526080810183905290517f298637f684da70674f26509b10f07ec2fbc77a335ab1e7d6215a4b2484d8bb529181900360a00190a15050505050505050565b6011546040516370a0823160e01b81523060048201526000916001600160a01b0316908190839082906370a0823190602401602060405180830381865afa158015613207573d6000803e3d6000fd5b505050506040513d601f19601f8201168201806040525081019061322b91906137a7565b6040516323b872dd60e01b81529091506001600160a01b038316906323b872dd9061325e90899030908a90600401613983565b600060405180830381600087803b15801561327857600080fd5b505af115801561328c573d6000803e3d6000fd5b5050505060003d600081146132a857602081146132b257600080fd5b60001991506132be565b60206000803e60005191505b508061330c5760405162461bcd60e51b815260206004820152601860248201527f544f4b454e5f5452414e534645525f494e5f4641494c454400000000000000006044820152606401610817565b6040516370a0823160e01b81523060048201526000906001600160a01b038616906370a0823190602401602060405180830381865afa158015613353573d6000803e3d6000fd5b505050506040513d601f19601f8201168201806040525081019061337791906137a7565b90506133838382613903565b98975050505050505050565b6000610b7b6133a684670de0b6b3a7640000612b24565b83516000610b7b8284613940565b600060208083528351808285015260005b818110156133e1578581018301518582016040015282016133c5565b506000604082860101526040601f19601f8301168501019250505092915050565b6001600160a01b038116811461341757600080fd5b50565b6000806040838503121561342d57600080fd5b823561343881613402565b946020939093013593505050565b60006020828403121561345857600080fd5b5035919050565b60006020828403121561347157600080fd5b8135610b7b81613402565b634e487b7160e01b600052604160045260246000fd5b600082601f8301126134a357600080fd5b813567ffffffffffffffff808211156134be576134be61347c565b604051601f8301601f19908116603f011681019082821181831017156134e6576134e661347c565b816040528381528660208588010111156134ff57600080fd5b836020870160208301376000602085830101528094505050505092915050565b803560ff8116811461353057600080fd5b919050565b600080600080600080600060e0888a03121561355057600080fd5b873561355b81613402565b9650602088013561356b81613402565b9550604088013561357b81613402565b945060608801359350608088013567ffffffffffffffff8082111561359f57600080fd5b6135ab8b838c01613492565b945060a08a01359150808211156135c157600080fd5b506135ce8a828b01613492565b9250506135dd60c0890161351f565b905092959891949750929550565b60008060006060848603121561360057600080fd5b833561360b81613402565b9250602084013561361b81613402565b929592945050506040919091013590565b60008060008060008060c0878903121561364557600080fd5b863561365081613402565b9550602087013561366081613402565b945060408701359350606087013567ffffffffffffffff8082111561368457600080fd5b6136908a838b01613492565b945060808901359150808211156136a657600080fd5b506136b389828a01613492565b9250506136c260a0880161351f565b90509295509295509295565b600080604083850312156136e157600080fd5b82356136ec81613402565b915060208301356136fc81613402565b809150509250929050565b60008060006060848603121561371c57600080fd5b833561372781613402565b925060208401359150604084013561373e81613402565b809150509250925092565b600181811c9082168061375d57607f821691505b60208210810361377d57634e487b7160e01b600052602260045260246000fd5b50919050565b6020808252600a90820152691c994b595b9d195c995960b21b604082015260600190565b6000602082840312156137b957600080fd5b5051919050565b6000602082840312156137d257600080fd5b81518015158114610b7b57600080fd5b601f82111561382857600081815260208120601f850160051c810160208610156138095750805b601f850160051c820191505b81811015610acf57828155600101613815565b505050565b815167ffffffffffffffff8111156138475761384761347c565b61385b816138558454613749565b846137e2565b602080601f83116001811461389057600084156138785750858301515b600019600386901b1c1916600185901b178555610acf565b600085815260208120601f198616915b828110156138bf578886015182559484019460019091019084016138a0565b50858210156138dd5787850151600019600388901b60f8161c191681555b5050505050600190811b01905550565b634e487b7160e01b600052601160045260246000fd5b818103818111156107db576107db6138ed565b808201808211156107db576107db6138ed565b80820281158282048414176107db576107db6138ed565b60008261395d57634e487b7160e01b600052601260045260246000fd5b500490565b6001600160a01b039390931683526020830191909152604082015260600190565b6001600160a01b039384168152919092166020820152604081019190915260600190565b600080604083850312156139ba57600080fd5b50508051602090910151909290915056feddf252ad1be2c89b69c2b068fc378daa952ba7f163c4a11628f55a4df523b3efa2646970667358221220cdcc7c4ef39abed4f75aaeaa1b0789026f656118daf7e4e3680e929c95b012b464736f6c63430008110033",
  "linkReferences": {},
  "deployedLinkReferences": {}
}