{
  "_format": "hh-sol-artifact-1",
  "contractName": "CDaiDelegate",
  "sourceName": "contracts/CDaiDelegate.sol",
  "abi": [
    {
      "inputs": [],
      "name": "AcceptAdminPendingAdminCheck",
      "type": "error"
    },
    {
      "inputs": [
        {
          "internalType": "uint256",
          "name": "actualAddAmount",
          "type": "uint256"
        }
      ],
      "name": "AddReservesFactorFreshCheck",
      "type": "error"
    },
    {
      "inputs": [],
      "name": "BorrowCashNotAvailable",
      "type": "error"
    },
    {
      "inputs": [
        {
          "internalType": "uint256",
          "name": "errorCode",
          "type": "uint256"
        }
      ],
      "name": "BorrowComptrollerRejection",
      "type": "error"
    },
    {
      "inputs": [],
      "name": "BorrowFreshnessCheck",
      "type": "error"
    },
    {
      "inputs": [
        {
          "internalType": "uint256",
          "name": "errorCode",
          "type": "uint256"
        }
      ],
      "name": "LiquidateAccrueBorrowInterestFailed",
      "type": "error"
    },
    {
      "inputs": [
        {
          "internalType": "uint256",
          "name": "errorCode",
          "type": "uint256"
        }
      ],
      "name": "LiquidateAccrueCollateralInterestFailed",
      "type": "error"
    },
    {
      "inputs": [],
      "name": "LiquidateCloseAmountIsUintMax",
      "type": "error"
    },
    {
      "inputs": [],
      "name": "LiquidateCloseAmountIsZero",
      "type": "error"
    },
    {
      "inputs": [],
      "name": "LiquidateCollateralFreshnessCheck",
      "type": "error"
    },
    {
      "inputs": [
        {
          "internalType": "uint256",
          "name": "errorCode",
          "type": "uint256"
        }
      ],
      "name": "LiquidateComptrollerRejection",
      "type": "error"
    },
    {
      "inputs": [],
      "name": "LiquidateFreshnessCheck",
      "type": "error"
    },
    {
      "inputs": [],
      "name": "LiquidateLiquidatorIsBorrower",
      "type": "error"
    },
    {
      "inputs": [
        {
          "internalType": "uint256",
          "name": "errorCode",
          "type": "uint256"
        }
      ],
      "name": "LiquidateRepayBorrowFreshFailed",
      "type": "error"
    },
    {
      "inputs": [
        {
          "internalType": "uint256",
          "name": "errorCode",
          "type": "uint256"
        }
      ],
      "name": "LiquidateSeizeComptrollerRejection",
      "type": "error"
    },
    {
      "inputs": [],
      "name": "LiquidateSeizeLiquidatorIsBorrower",
      "type": "error"
    },
    {
      "inputs": [
        {
          "internalType": "uint256",
          "name": "errorCode",
          "type": "uint256"
        }
      ],
      "name": "MintComptrollerRejection",
      "type": "error"
    },
    {
      "inputs": [],
      "name": "MintFreshnessCheck",
      "type": "error"
    },
    {
      "inputs": [
        {
          "internalType": "uint256",
          "name": "errorCode",
          "type": "uint256"
        }
      ],
      "name": "RedeemComptrollerRejection",
      "type": "error"
    },
    {
      "inputs": [],
      "name": "RedeemFreshnessCheck",
      "type": "error"
    },
    {
      "inputs": [],
      "name": "RedeemTransferOutNotPossible",
      "type": "error"
    },
    {
      "inputs": [],
      "name": "ReduceReservesAdminCheck",
      "type": "error"
    },
    {
      "inputs": [],
      "name": "ReduceReservesCashNotAvailable",
      "type": "error"
    },
    {
      "inputs": [],
      "name": "ReduceReservesCashValidation",
      "type": "error"
    },
    {
      "inputs": [],
      "name": "ReduceReservesFreshCheck",
      "type": "error"
    },
    {
      "inputs": [
        {
          "internalType": "uint256",
          "name": "errorCode",
          "type": "uint256"
        }
      ],
      "name": "RepayBorrowComptrollerRejection",
      "type": "error"
    },
    {
      "inputs": [],
      "name": "RepayBorrowFreshnessCheck",
      "type": "error"
    },
    {
      "inputs": [],
      "name": "SetComptrollerOwnerCheck",
      "type": "error"
    },
    {
      "inputs": [],
      "name": "SetInterestRateModelFreshCheck",
      "type": "error"
    },
    {
      "inputs": [],
      "name": "SetInterestRateModelOwnerCheck",
      "type": "error"
    },
    {
      "inputs": [],
      "name": "SetPendingAdminOwnerCheck",
      "type": "error"
    },
    {
      "inputs": [],
      "name": "SetReserveFactorAdminCheck",
      "type": "error"
    },
    {
      "inputs": [],
      "name": "SetReserveFactorBoundsCheck",
      "type": "error"
    },
    {
      "inputs": [],
      "name": "SetReserveFactorFreshCheck",
      "type": "error"
    },
    {
      "inputs": [
        {
          "internalType": "uint256",
          "name": "errorCode",
          "type": "uint256"
        }
      ],
      "name": "TransferComptrollerRejection",
      "type": "error"
    },
    {
      "inputs": [],
      "name": "TransferNotAllowed",
      "type": "error"
    },
    {
      "inputs": [],
      "name": "TransferNotEnough",
      "type": "error"
    },
    {
      "inputs": [],
      "name": "TransferTooMuch",
      "type": "error"
    },
    {
      "anonymous": false,
      "inputs": [
        {
          "indexed": false,
          "internalType": "uint256",
          "name": "cashPrior",
          "type": "uint256"
        },
        {
          "indexed": false,
          "internalType": "uint256",
          "name": "interestAccumulated",
          "type": "uint256"
        },
        {
          "indexed": false,
          "internalType": "uint256",
          "name": "borrowIndex",
          "type": "uint256"
        },
        {
          "indexed": false,
          "internalType": "uint256",
          "name": "totalBorrows",
          "type": "uint256"
        }
      ],
      "name": "AccrueInterest",
      "type": "event"
    },
    {
      "anonymous": false,
      "inputs": [
        {
          "indexed": true,
          "internalType": "address",
          "name": "owner",
          "type": "address"
        },
        {
          "indexed": true,
          "internalType": "address",
          "name": "spender",
          "type": "address"
        },
        {
          "indexed": false,
          "internalType": "uint256",
          "name": "amount",
          "type": "uint256"
        }
      ],
      "name": "Approval",
      "type": "event"
    },
    {
      "anonymous": false,
      "inputs": [
        {
          "indexed": false,
          "internalType": "address",
          "name": "borrower",
          "type": "address"
        },
        {
          "indexed": false,
          "internalType": "uint256",
          "name": "borrowAmount",
          "type": "uint256"
        },
        {
          "indexed": false,
          "internalType": "uint256",
          "name": "accountBorrows",
          "type": "uint256"
        },
        {
          "indexed": false,
          "internalType": "uint256",
          "name": "totalBorrows",
          "type": "uint256"
        }
      ],
      "name": "Borrow",
      "type": "event"
    },
    {
      "anonymous": false,
      "inputs": [
        {
          "indexed": false,
          "internalType": "address",
          "name": "liquidator",
          "type": "address"
        },
        {
          "indexed": false,
          "internalType": "address",
          "name": "borrower",
          "type": "address"
        },
        {
          "indexed": false,
          "internalType": "uint256",
          "name": "repayAmount",
          "type": "uint256"
        },
        {
          "indexed": false,
          "internalType": "address",
          "name": "cTokenCollateral",
          "type": "address"
        },
        {
          "indexed": false,
          "internalType": "uint256",
          "name": "seizeTokens",
          "type": "uint256"
        }
      ],
      "name": "LiquidateBorrow",
      "type": "event"
    },
    {
      "anonymous": false,
      "inputs": [
        {
          "indexed": false,
          "internalType": "address",
          "name": "minter",
          "type": "address"
        },
        {
          "indexed": false,
          "internalType": "uint256",
          "name": "mintAmount",
          "type": "uint256"
        },
        {
          "indexed": false,
          "internalType": "uint256",
          "name": "mintTokens",
          "type": "uint256"
        }
      ],
      "name": "Mint",
      "type": "event"
    },
    {
      "anonymous": false,
      "inputs": [
        {
          "indexed": false,
          "internalType": "address",
          "name": "oldAdmin",
          "type": "address"
        },
        {
          "indexed": false,
          "internalType": "address",
          "name": "newAdmin",
          "type": "address"
        }
      ],
      "name": "NewAdmin",
      "type": "event"
    },
    {
      "anonymous": false,
      "inputs": [
        {
          "indexed": false,
          "internalType": "contract ComptrollerInterface",
          "name": "oldComptroller",
          "type": "address"
        },
        {
          "indexed": false,
          "internalType": "contract ComptrollerInterface",
          "name": "newComptroller",
          "type": "address"
        }
      ],
      "name": "NewComptroller",
      "type": "event"
    },
    {
      "anonymous": false,
      "inputs": [
        {
          "indexed": false,
          "internalType": "contract InterestRateModel",
          "name": "oldInterestRateModel",
          "type": "address"
        },
        {
          "indexed": false,
          "internalType": "contract InterestRateModel",
          "name": "newInterestRateModel",
          "type": "address"
        }
      ],
      "name": "NewMarketInterestRateModel",
      "type": "event"
    },
    {
      "anonymous": false,
      "inputs": [
        {
          "indexed": false,
          "internalType": "address",
          "name": "oldPendingAdmin",
          "type": "address"
        },
        {
          "indexed": false,
          "internalType": "address",
          "name": "newPendingAdmin",
          "type": "address"
        }
      ],
      "name": "NewPendingAdmin",
      "type": "event"
    },
    {
      "anonymous": false,
      "inputs": [
        {
          "indexed": false,
          "internalType": "uint256",
          "name": "oldReserveFactorMantissa",
          "type": "uint256"
        },
        {
          "indexed": false,
          "internalType": "uint256",
          "name": "newReserveFactorMantissa",
          "type": "uint256"
        }
      ],
      "name": "NewReserveFactor",
      "type": "event"
    },
    {
      "anonymous": false,
      "inputs": [
        {
          "indexed": false,
          "internalType": "address",
          "name": "redeemer",
          "type": "address"
        },
        {
          "indexed": false,
          "internalType": "uint256",
          "name": "redeemAmount",
          "type": "uint256"
        },
        {
          "indexed": false,
          "internalType": "uint256",
          "name": "redeemTokens",
          "type": "uint256"
        }
      ],
      "name": "Redeem",
      "type": "event"
    },
    {
      "anonymous": false,
      "inputs": [
        {
          "indexed": false,
          "internalType": "address",
          "name": "payer",
          "type": "address"
        },
        {
          "indexed": false,
          "internalType": "address",
          "name": "borrower",
          "type": "address"
        },
        {
          "indexed": false,
          "internalType": "uint256",
          "name": "repayAmount",
          "type": "uint256"
        },
        {
          "indexed": false,
          "internalType": "uint256",
          "name": "accountBorrows",
          "type": "uint256"
        },
        {
          "indexed": false,
          "internalType": "uint256",
          "name": "totalBorrows",
          "type": "uint256"
        }
      ],
      "name": "RepayBorrow",
      "type": "event"
    },
    {
      "anonymous": false,
      "inputs": [
        {
          "indexed": false,
          "internalType": "address",
          "name": "benefactor",
          "type": "address"
        },
        {
          "indexed": false,
          "internalType": "uint256",
          "name": "addAmount",
          "type": "uint256"
        },
        {
          "indexed": false,
          "internalType": "uint256",
          "name": "newTotalReserves",
          "type": "uint256"
        }
      ],
      "name": "ReservesAdded",
      "type": "event"
    },
    {
      "anonymous": false,
      "inputs": [
        {
          "indexed": false,
          "internalType": "address",
          "name": "admin",
          "type": "address"
        },
        {
          "indexed": false,
          "internalType": "uint256",
          "name": "reduceAmount",
          "type": "uint256"
        },
        {
          "indexed": false,
          "internalType": "uint256",
          "name": "newTotalReserves",
          "type": "uint256"
        }
      ],
      "name": "ReservesReduced",
      "type": "event"
    },
    {
      "anonymous": false,
      "inputs": [
        {
          "indexed": true,
          "internalType": "address",
          "name": "from",
          "type": "address"
        },
        {
          "indexed": true,
          "internalType": "address",
          "name": "to",
          "type": "address"
        },
        {
          "indexed": false,
          "internalType": "uint256",
          "name": "amount",
          "type": "uint256"
        }
      ],
      "name": "Transfer",
      "type": "event"
    },
    {
      "inputs": [],
      "name": "NO_ERROR",
      "outputs": [
        {
          "internalType": "uint256",
          "name": "",
          "type": "uint256"
        }
      ],
      "stateMutability": "view",
      "type": "function"
    },
    {
      "inputs": [],
      "name": "_acceptAdmin",
      "outputs": [
        {
          "internalType": "uint256",
          "name": "",
          "type": "uint256"
        }
      ],
      "stateMutability": "nonpayable",
      "type": "function"
    },
    {
      "inputs": [
        {
          "internalType": "uint256",
          "name": "addAmount",
          "type": "uint256"
        }
      ],
      "name": "_addReserves",
      "outputs": [
        {
          "internalType": "uint256",
          "name": "",
          "type": "uint256"
        }
      ],
      "stateMutability": "nonpayable",
      "type": "function"
    },
    {
      "inputs": [
        {
          "internalType": "bytes",
          "name": "data",
          "type": "bytes"
        }
      ],
      "name": "_becomeImplementation",
      "outputs": [],
      "stateMutability": "nonpayable",
      "type": "function"
    },
    {
      "inputs": [
        {
          "internalType": "address",
          "name": "compLikeDelegatee",
          "type": "address"
        }
      ],
      "name": "_delegateCompLikeTo",
      "outputs": [],
      "stateMutability": "nonpayable",
      "type": "function"
    },
    {
      "inputs": [
        {
          "internalType": "uint256",
          "name": "reduceAmount",
          "type": "uint256"
        }
      ],
      "name": "_reduceReserves",
      "outputs": [
        {
          "internalType": "uint256",
          "name": "",
          "type": "uint256"
        }
      ],
      "stateMutability": "nonpayable",
      "type": "function"
    },
    {
      "inputs": [],
      "name": "_resignImplementation",
      "outputs": [],
      "stateMutability": "nonpayable",
      "type": "function"
    },
    {
      "inputs": [
        {
          "internalType": "contract ComptrollerInterface",
          "name": "newComptroller",
          "type": "address"
        }
      ],
      "name": "_setComptroller",
      "outputs": [
        {
          "internalType": "uint256",
          "name": "",
          "type": "uint256"
        }
      ],
      "stateMutability": "nonpayable",
      "type": "function"
    },
    {
      "inputs": [
        {
          "internalType": "contract InterestRateModel",
          "name": "newInterestRateModel",
          "type": "address"
        }
      ],
      "name": "_setInterestRateModel",
      "outputs": [
        {
          "internalType": "uint256",
          "name": "",
          "type": "uint256"
        }
      ],
      "stateMutability": "nonpayable",
      "type": "function"
    },
    {
      "inputs": [
        {
          "internalType": "address payable",
          "name": "newPendingAdmin",
          "type": "address"
        }
      ],
      "name": "_setPendingAdmin",
      "outputs": [
        {
          "internalType": "uint256",
          "name": "",
          "type": "uint256"
        }
      ],
      "stateMutability": "nonpayable",
      "type": "function"
    },
    {
      "inputs": [
        {
          "internalType": "uint256",
          "name": "newReserveFactorMantissa",
          "type": "uint256"
        }
      ],
      "name": "_setReserveFactor",
      "outputs": [
        {
          "internalType": "uint256",
          "name": "",
          "type": "uint256"
        }
      ],
      "stateMutability": "nonpayable",
      "type": "function"
    },
    {
      "inputs": [],
      "name": "accrualBlockNumber",
      "outputs": [
        {
          "internalType": "uint256",
          "name": "",
          "type": "uint256"
        }
      ],
      "stateMutability": "view",
      "type": "function"
    },
    {
      "inputs": [],
      "name": "accrueInterest",
      "outputs": [
        {
          "internalType": "uint256",
          "name": "",
          "type": "uint256"
        }
      ],
      "stateMutability": "nonpayable",
      "type": "function"
    },
    {
      "inputs": [],
      "name": "admin",
      "outputs": [
        {
          "internalType": "address payable",
          "name": "",
          "type": "address"
        }
      ],
      "stateMutability": "view",
      "type": "function"
    },
    {
      "inputs": [
        {
          "internalType": "address",
          "name": "owner",
          "type": "address"
        },
        {
          "internalType": "address",
          "name": "spender",
          "type": "address"
        }
      ],
      "name": "allowance",
      "outputs": [
        {
          "internalType": "uint256",
          "name": "",
          "type": "uint256"
        }
      ],
      "stateMutability": "view",
      "type": "function"
    },
    {
      "inputs": [
        {
          "internalType": "address",
          "name": "spender",
          "type": "address"
        },
        {
          "internalType": "uint256",
          "name": "amount",
          "type": "uint256"
        }
      ],
      "name": "approve",
      "outputs": [
        {
          "internalType": "bool",
          "name": "",
          "type": "bool"
        }
      ],
      "stateMutability": "nonpayable",
      "type": "function"
    },
    {
      "inputs": [
        {
          "internalType": "address",
          "name": "owner",
          "type": "address"
        }
      ],
      "name": "balanceOf",
      "outputs": [
        {
          "internalType": "uint256",
          "name": "",
          "type": "uint256"
        }
      ],
      "stateMutability": "view",
      "type": "function"
    },
    {
      "inputs": [
        {
          "internalType": "address",
          "name": "owner",
          "type": "address"
        }
      ],
      "name": "balanceOfUnderlying",
      "outputs": [
        {
          "internalType": "uint256",
          "name": "",
          "type": "uint256"
        }
      ],
      "stateMutability": "nonpayable",
      "type": "function"
    },
    {
      "inputs": [
        {
          "internalType": "uint256",
          "name": "borrowAmount",
          "type": "uint256"
        }
      ],
      "name": "borrow",
      "outputs": [
        {
          "internalType": "uint256",
          "name": "",
          "type": "uint256"
        }
      ],
      "stateMutability": "nonpayable",
      "type": "function"
    },
    {
      "inputs": [
        {
          "internalType": "address",
          "name": "account",
          "type": "address"
        }
      ],
      "name": "borrowBalanceCurrent",
      "outputs": [
        {
          "internalType": "uint256",
          "name": "",
          "type": "uint256"
        }
      ],
      "stateMutability": "nonpayable",
      "type": "function"
    },
    {
      "inputs": [
        {
          "internalType": "address",
          "name": "account",
          "type": "address"
        }
      ],
      "name": "borrowBalanceStored",
      "outputs": [
        {
          "internalType": "uint256",
          "name": "",
          "type": "uint256"
        }
      ],
      "stateMutability": "view",
      "type": "function"
    },
    {
      "inputs": [],
      "name": "borrowIndex",
      "outputs": [
        {
          "internalType": "uint256",
          "name": "",
          "type": "uint256"
        }
      ],
      "stateMutability": "view",
      "type": "function"
    },
    {
      "inputs": [],
      "name": "borrowRatePerBlock",
      "outputs": [
        {
          "internalType": "uint256",
          "name": "",
          "type": "uint256"
        }
      ],
      "stateMutability": "view",
      "type": "function"
    },
    {
      "inputs": [],
      "name": "comptroller",
      "outputs": [
        {
          "internalType": "contract ComptrollerInterface",
          "name": "",
          "type": "address"
        }
      ],
      "stateMutability": "view",
      "type": "function"
    },
    {
      "inputs": [],
      "name": "daiJoinAddress",
      "outputs": [
        {
          "internalType": "address",
          "name": "",
          "type": "address"
        }
      ],
      "stateMutability": "view",
      "type": "function"
    },
    {
      "inputs": [],
      "name": "decimals",
      "outputs": [
        {
          "internalType": "uint8",
          "name": "",
          "type": "uint8"
        }
      ],
      "stateMutability": "view",
      "type": "function"
    },
    {
      "inputs": [],
      "name": "exchangeRateCurrent",
      "outputs": [
        {
          "internalType": "uint256",
          "name": "",
          "type": "uint256"
        }
      ],
      "stateMutability": "nonpayable",
      "type": "function"
    },
    {
      "inputs": [],
      "name": "exchangeRateStored",
      "outputs": [
        {
          "internalType": "uint256",
          "name": "",
          "type": "uint256"
        }
      ],
      "stateMutability": "view",
      "type": "function"
    },
    {
      "inputs": [
        {
          "internalType": "address",
          "name": "account",
          "type": "address"
        }
      ],
      "name": "getAccountSnapshot",
      "outputs": [
        {
          "internalType": "uint256",
          "name": "",
          "type": "uint256"
        },
        {
          "internalType": "uint256",
          "name": "",
          "type": "uint256"
        },
        {
          "internalType": "uint256",
          "name": "",
          "type": "uint256"
        },
        {
          "internalType": "uint256",
          "name": "",
          "type": "uint256"
        }
      ],
      "stateMutability": "view",
      "type": "function"
    },
    {
      "inputs": [],
      "name": "getCash",
      "outputs": [
        {
          "internalType": "uint256",
          "name": "",
          "type": "uint256"
        }
      ],
      "stateMutability": "view",
      "type": "function"
    },
    {
      "inputs": [],
      "name": "implementation",
      "outputs": [
        {
          "internalType": "address",
          "name": "",
          "type": "address"
        }
      ],
      "stateMutability": "view",
      "type": "function"
    },
    {
      "inputs": [
        {
          "internalType": "address",
          "name": "underlying_",
          "type": "address"
        },
        {
          "internalType": "contract ComptrollerInterface",
          "name": "comptroller_",
          "type": "address"
        },
        {
          "internalType": "contract InterestRateModel",
          "name": "interestRateModel_",
          "type": "address"
        },
        {
          "internalType": "uint256",
          "name": "initialExchangeRateMantissa_",
          "type": "uint256"
        },
        {
          "internalType": "string",
          "name": "name_",
          "type": "string"
        },
        {
          "internalType": "string",
          "name": "symbol_",
          "type": "string"
        },
        {
          "internalType": "uint8",
          "name": "decimals_",
          "type": "uint8"
        }
      ],
      "name": "initialize",
      "outputs": [],
      "stateMutability": "nonpayable",
      "type": "function"
    },
    {
      "inputs": [
        {
          "internalType": "contract ComptrollerInterface",
          "name": "comptroller_",
          "type": "address"
        },
        {
          "internalType": "contract InterestRateModel",
          "name": "interestRateModel_",
          "type": "address"
        },
        {
          "internalType": "uint256",
          "name": "initialExchangeRateMantissa_",
          "type": "uint256"
        },
        {
          "internalType": "string",
          "name": "name_",
          "type": "string"
        },
        {
          "internalType": "string",
          "name": "symbol_",
          "type": "string"
        },
        {
          "internalType": "uint8",
          "name": "decimals_",
          "type": "uint8"
        }
      ],
      "name": "initialize",
      "outputs": [],
      "stateMutability": "nonpayable",
      "type": "function"
    },
    {
      "inputs": [],
      "name": "interestRateModel",
      "outputs": [
        {
          "internalType": "contract InterestRateModel",
          "name": "",
          "type": "address"
        }
      ],
      "stateMutability": "view",
      "type": "function"
    },
    {
      "inputs": [],
      "name": "isCToken",
      "outputs": [
        {
          "internalType": "bool",
          "name": "",
          "type": "bool"
        }
      ],
      "stateMutability": "view",
      "type": "function"
    },
    {
      "inputs": [
        {
          "internalType": "address",
          "name": "borrower",
          "type": "address"
        },
        {
          "internalType": "uint256",
          "name": "repayAmount",
          "type": "uint256"
        },
        {
          "internalType": "contract CTokenInterface",
          "name": "cTokenCollateral",
          "type": "address"
        }
      ],
      "name": "liquidateBorrow",
      "outputs": [
        {
          "internalType": "uint256",
          "name": "",
          "type": "uint256"
        }
      ],
      "stateMutability": "nonpayable",
      "type": "function"
    },
    {
      "inputs": [
        {
          "internalType": "uint256",
          "name": "mintAmount",
          "type": "uint256"
        }
      ],
      "name": "mint",
      "outputs": [
        {
          "internalType": "uint256",
          "name": "",
          "type": "uint256"
        }
      ],
      "stateMutability": "nonpayable",
      "type": "function"
    },
    {
      "inputs": [],
      "name": "name",
      "outputs": [
        {
          "internalType": "string",
          "name": "",
          "type": "string"
        }
      ],
      "stateMutability": "view",
      "type": "function"
    },
    {
      "inputs": [],
      "name": "pendingAdmin",
      "outputs": [
        {
          "internalType": "address payable",
          "name": "",
          "type": "address"
        }
      ],
      "stateMutability": "view",
      "type": "function"
    },
    {
      "inputs": [],
      "name": "potAddress",
      "outputs": [
        {
          "internalType": "address",
          "name": "",
          "type": "address"
        }
      ],
      "stateMutability": "view",
      "type": "function"
    },
    {
      "inputs": [],
      "name": "protocolSeizeShareMantissa",
      "outputs": [
        {
          "internalType": "uint256",
          "name": "",
          "type": "uint256"
        }
      ],
      "stateMutability": "view",
      "type": "function"
    },
    {
      "inputs": [
        {
          "internalType": "uint256",
          "name": "redeemTokens",
          "type": "uint256"
        }
      ],
      "name": "redeem",
      "outputs": [
        {
          "internalType": "uint256",
          "name": "",
          "type": "uint256"
        }
      ],
      "stateMutability": "nonpayable",
      "type": "function"
    },
    {
      "inputs": [
        {
          "internalType": "uint256",
          "name": "redeemAmount",
          "type": "uint256"
        }
      ],
      "name": "redeemUnderlying",
      "outputs": [
        {
          "internalType": "uint256",
          "name": "",
          "type": "uint256"
        }
      ],
      "stateMutability": "nonpayable",
      "type": "function"
    },
    {
      "inputs": [
        {
          "internalType": "uint256",
          "name": "repayAmount",
          "type": "uint256"
        }
      ],
      "name": "repayBorrow",
      "outputs": [
        {
          "internalType": "uint256",
          "name": "",
          "type": "uint256"
        }
      ],
      "stateMutability": "nonpayable",
      "type": "function"
    },
    {
      "inputs": [
        {
          "internalType": "address",
          "name": "borrower",
          "type": "address"
        },
        {
          "internalType": "uint256",
          "name": "repayAmount",
          "type": "uint256"
        }
      ],
      "name": "repayBorrowBehalf",
      "outputs": [
        {
          "internalType": "uint256",
          "name": "",
          "type": "uint256"
        }
      ],
      "stateMutability": "nonpayable",
      "type": "function"
    },
    {
      "inputs": [],
      "name": "reserveFactorMantissa",
      "outputs": [
        {
          "internalType": "uint256",
          "name": "",
          "type": "uint256"
        }
      ],
      "stateMutability": "view",
      "type": "function"
    },
    {
      "inputs": [
        {
          "internalType": "address",
          "name": "liquidator",
          "type": "address"
        },
        {
          "internalType": "address",
          "name": "borrower",
          "type": "address"
        },
        {
          "internalType": "uint256",
          "name": "seizeTokens",
          "type": "uint256"
        }
      ],
      "name": "seize",
      "outputs": [
        {
          "internalType": "uint256",
          "name": "",
          "type": "uint256"
        }
      ],
      "stateMutability": "nonpayable",
      "type": "function"
    },
    {
      "inputs": [],
      "name": "supplyRatePerBlock",
      "outputs": [
        {
          "internalType": "uint256",
          "name": "",
          "type": "uint256"
        }
      ],
      "stateMutability": "view",
      "type": "function"
    },
    {
      "inputs": [
        {
          "internalType": "contract EIP20NonStandardInterface",
          "name": "token",
          "type": "address"
        }
      ],
      "name": "sweepToken",
      "outputs": [],
      "stateMutability": "nonpayable",
      "type": "function"
    },
    {
      "inputs": [],
      "name": "symbol",
      "outputs": [
        {
          "internalType": "string",
          "name": "",
          "type": "string"
        }
      ],
      "stateMutability": "view",
      "type": "function"
    },
    {
      "inputs": [],
      "name": "totalBorrows",
      "outputs": [
        {
          "internalType": "uint256",
          "name": "",
          "type": "uint256"
        }
      ],
      "stateMutability": "view",
      "type": "function"
    },
    {
      "inputs": [],
      "name": "totalBorrowsCurrent",
      "outputs": [
        {
          "internalType": "uint256",
          "name": "",
          "type": "uint256"
        }
      ],
      "stateMutability": "nonpayable",
      "type": "function"
    },
    {
      "inputs": [],
      "name": "totalReserves",
      "outputs": [
        {
          "internalType": "uint256",
          "name": "",
          "type": "uint256"
        }
      ],
      "stateMutability": "view",
      "type": "function"
    },
    {
      "inputs": [],
      "name": "totalSupply",
      "outputs": [
        {
          "internalType": "uint256",
          "name": "",
          "type": "uint256"
        }
      ],
      "stateMutability": "view",
      "type": "function"
    },
    {
      "inputs": [
        {
          "internalType": "address",
          "name": "dst",
          "type": "address"
        },
        {
          "internalType": "uint256",
          "name": "amount",
          "type": "uint256"
        }
      ],
      "name": "transfer",
      "outputs": [
        {
          "internalType": "bool",
          "name": "",
          "type": "bool"
        }
      ],
      "stateMutability": "nonpayable",
      "type": "function"
    },
    {
      "inputs": [
        {
          "internalType": "address",
          "name": "src",
          "type": "address"
        },
        {
          "internalType": "address",
          "name": "dst",
          "type": "address"
        },
        {
          "internalType": "uint256",
          "name": "amount",
          "type": "uint256"
        }
      ],
      "name": "transferFrom",
      "outputs": [
        {
          "internalType": "bool",
          "name": "",
          "type": "bool"
        }
      ],
      "stateMutability": "nonpayable",
      "type": "function"
    },
    {
      "inputs": [],
      "name": "underlying",
      "outputs": [
        {
          "internalType": "address",
          "name": "",
          "type": "address"
        }
      ],
      "stateMutability": "view",
      "type": "function"
    },
    {
      "inputs": [],
      "name": "vatAddress",
      "outputs": [
        {
          "internalType": "address",
          "name": "",
          "type": "address"
        }
      ],
      "stateMutability": "view",
      "type": "function"
    }
  ],
  "bytecode": "0x608060405234801561001057600080fd5b50614530806100206000396000f3fe608060405234801561001057600080fd5b506004361061038e5760003560e01c806373acee98116101de578063b2a02ff11161010f578063e9c714f2116100ad578063f851a4401161007c578063f851a44014610791578063f8f9da28146107a9578063fca7820b146107b1578063fe9c44ae146107c457600080fd5b8063e9c714f214610750578063f2b3abbd14610758578063f3fdb15a1461076b578063f5e3c4621461077e57600080fd5b8063c37f68e2116100e9578063c37f68e2146106be578063c5ebeaec146106f1578063db006a7514610704578063dd62ed3e1461071757600080fd5b8063b2a02ff114610690578063b71d1a0c146106a3578063bd6d894d146106b657600080fd5b806395dd91931161017c578063a6afed9511610156578063a6afed9514610664578063a9059cbb1461066c578063aa5af0fd1461067f578063ae9d70b01461068857600080fd5b806395dd91931461062b57806399d8c1b41461063e578063a0712d681461065157600080fd5b80638a8df2e6116101b85780638a8df2e6146105f45780638d925ccd146106075780638f840ddd1461061a57806395d89b411461062357600080fd5b806373acee98146105c65780637f1e06be146105ce578063852a12e3146105e157600080fd5b80633af9e669116102c35780635fe3b5671161026157806369ab32501161023057806369ab3250146105795780636c540baf146105815780636f307dc31461058a57806370a082311461059d57600080fd5b80635fe3b56714610532578063601a0bf11461054557806366ced602146105585780636752e7021461056b57600080fd5b80634576b5db1161029d5780634576b5db146104f057806347bd37181461050357806356e677281461050c5780635c60da1b1461051f57600080fd5b80633af9e669146104c25780633b1d21a2146104d55780633e941010146104dd57600080fd5b8063182df0f51161033057806323b872dd1161030a57806323b872dd146104525780632608f818146104655780632678224714610478578063313ce567146104a357600080fd5b8063182df0f5146104245780631a31d4651461042c5780631be195601461043f57600080fd5b8063153ab5051161036c578063153ab505146103f5578063173b9904146103ff57806317bfdfbc1461040857806318160ddd1461041b57600080fd5b806306fdde0314610393578063095ea7b3146103b15780630e752702146103d4575b600080fd5b61039b6107cc565b6040516103a89190613e2a565b60405180910390f35b6103c46103bf366004613e90565b61085a565b60405190151581526020016103a8565b6103e76103e2366004613ebc565b6108ca565b6040519081526020016103a8565b6103fd6108dd565b005b6103e760085481565b6103e7610416366004613ed5565b610b98565b6103e7600d5481565b6103e7610beb565b6103fd61043a366004613fb4565b610bfa565b6103fd61044d366004613ed5565b610ca6565b6103c461046036600461406a565b610e72565b6103e7610473366004613e90565b610ec2565b60045461048b906001600160a01b031681565b6040516001600160a01b0390911681526020016103a8565b6003546104b09060ff1681565b60405160ff90911681526020016103a8565b6103e76104d0366004613ed5565b610ed7565b6103e7610f1d565b6103e76104eb366004613ebc565b610f27565b6103e76104fe366004613ed5565b610f32565b6103e7600b5481565b6103fd61051a3660046140ab565b611084565b60125461048b906001600160a01b031681565b60055461048b906001600160a01b031681565b6103e7610553366004613ebc565b611126565b60145461048b906001600160a01b031681565b6103e7666379da05b6000081565b6103e7600081565b6103e760095481565b60115461048b906001600160a01b031681565b6103e76105ab366004613ed5565b6001600160a01b03166000908152600e602052604090205490565b6103e7611165565b6103fd6105dc366004613ed5565b6111af565b6103e76105ef366004613ebc565b611286565b60135461048b906001600160a01b031681565b60155461048b906001600160a01b031681565b6103e7600c5481565b61039b611291565b6103e7610639366004613ed5565b61129e565b6103fd61064c3660046140f4565b6112a9565b6103e761065f366004613ebc565b6114f6565b6103e7611501565b6103c461067a366004613e90565b611579565b6103e7600a5481565b6103e76115c8565b6103e761069e36600461406a565b611660565b6103e76106b1366004613ed5565b6116af565b6103e761173c565b6106d16106cc366004613ed5565b61178c565b6040805194855260208501939093529183015260608201526080016103a8565b6103e76106ff366004613ebc565b6117cd565b6103e7610712366004613ebc565b6117d8565b6103e7610725366004614196565b6001600160a01b039182166000908152600f6020908152604080832093909416825291909152205490565b6103e76117e3565b6103e7610766366004613ed5565b6118ea565b60065461048b906001600160a01b031681565b6103e761078c3660046141cf565b6118fe565b60035461048b9061010090046001600160a01b031681565b6103e7611915565b6103e76107bf366004613ebc565b611968565b6103c4600181565b600180546107d990614211565b80601f016020809104026020016040519081016040528092919081815260200182805461080590614211565b80156108525780601f1061082757610100808354040283529160200191610852565b820191906000526020600020905b81548152906001019060200180831161083557829003601f168201915b505050505081565b336000818152600f602090815260408083206001600160a01b03871680855292528083208590555191929182907f8c5be1e5ebec7d5bd14f71427d1e84f3dd0314c0f7b2291e5b200ac8c7c3b925906108b69087815260200190565b60405180910390a360019150505b92915050565b60006108d5826119a7565b506000919050565b60035461010090046001600160a01b031633146109575760405162461bcd60e51b815260206004820152602d60248201527f6f6e6c79207468652061646d696e206d6179206162616e646f6e20746865206960448201526c36b83632b6b2b73a30ba34b7b760991b60648201526084015b60405180910390fd5b60135460145460155460408051634fb3c66560e11b815290516001600160a01b039485169493841693909216918391639f678cca91600480830192602092919082900301816000875af11580156109b2573d6000803e3d6000fd5b505050506040513d601f19601f820116820180604052508101906109d6919061424b565b506040516305f5d64360e11b81523060048201526000906001600160a01b03841690630bebac8690602401602060405180830381865afa158015610a1e573d6000803e3d6000fd5b505050506040513d601f19601f82011682018060405250810190610a42919061424b565b604051637f8661a160e01b8152600481018290529091506001600160a01b03841690637f8661a190602401600060405180830381600087803b158015610a8757600080fd5b505af1158015610a9b573d6000803e3d6000fd5b5050604051633612d9a360e11b8152306004820152600092506001600160a01b0385169150636c25b34690602401602060405180830381865afa158015610ae6573d6000803e3d6000fd5b505050506040513d601f19601f82011682018060405250810190610b0a919061424b565b90506001600160a01b03851663ef693bed30610b326b033b2e3c9fd0803ce80000008561427a565b6040516001600160e01b031960e085901b1681526001600160a01b03909216600483015260248201526044015b600060405180830381600087803b158015610b7957600080fd5b505af1158015610b8d573d6000803e3d6000fd5b505050505050505050565b6000805460ff16610bbb5760405162461bcd60e51b815260040161094e9061429c565b6000805460ff19169055610bcd611501565b50610bd78261129e565b90506000805460ff19166001179055919050565b6000610bf56119f8565b905090565b60038054610100600160a81b0319163361010002179055610c1f8686868686866112a9565b601180546001600160a01b0319166001600160a01b038916908117909155604080516318160ddd60e01b815290516318160ddd916004808201926020929091908290030181865afa158015610c78573d6000803e3d6000fd5b505050506040513d601f19601f82011682018060405250810190610c9c919061424b565b5050505050505050565b60035461010090046001600160a01b03163314610d1d5760405162461bcd60e51b815260206004820152602f60248201527f4345726332303a3a7377656570546f6b656e3a206f6e6c792061646d696e206360448201526e616e20737765657020746f6b656e7360881b606482015260840161094e565b6011546001600160a01b0390811690821603610d965760405162461bcd60e51b815260206004820152603260248201527f4345726332303a3a7377656570546f6b656e3a2063616e206e6f74207377656560448201527138103ab73232b9363cb4b733903a37b5b2b760711b606482015260840161094e565b6040516370a0823160e01b81523060048201526000906001600160a01b038316906370a0823190602401602060405180830381865afa158015610ddd573d6000803e3d6000fd5b505050506040513d601f19601f82011682018060405250810190610e01919061424b565b60035460405163a9059cbb60e01b81526001600160a01b03610100909204821660048201526024810183905291925083169063a9059cbb90604401600060405180830381600087803b158015610e5657600080fd5b505af1158015610e6a573d6000803e3d6000fd5b505050505050565b6000805460ff16610e955760405162461bcd60e51b815260040161094e9061429c565b6000805460ff19168155610eab33868686611a60565b1490506000805460ff191660011790559392505050565b6000610ece8383611c8c565b50600092915050565b6000806040518060200160405280610eed61173c565b90526001600160a01b0384166000908152600e6020526040902054909150610f16908290611cde565b9392505050565b6000610bf5611cfe565b60006108c482611dfa565b60035460009061010090046001600160a01b03163314610f655760405163d219dc1f60e01b815260040160405180910390fd5b60055460408051623f1ee960e11b815290516001600160a01b0392831692851691627e3dd29160048083019260209291908290030181865afa158015610faf573d6000803e3d6000fd5b505050506040513d601f19601f82011682018060405250810190610fd391906142c0565b61101f5760405162461bcd60e51b815260206004820152601c60248201527f6d61726b6572206d6574686f642072657475726e65642066616c736500000000604482015260640161094e565b600580546001600160a01b0319166001600160a01b0385811691821790925560408051928416835260208301919091527f7ac369dbd14fa5ea3f473ed67cc9d598964a77501540ba6751eb0b3decf5870d91015b60405180910390a150600092915050565b60035461010090046001600160a01b031633146110fc5760405162461bcd60e51b815260206004820152603060248201527f6f6e6c79207468652061646d696e206d617920696e697469616c697a6520746860448201526f329034b6b83632b6b2b73a30ba34b7b760811b606482015260840161094e565b6000808280602001905181019061111391906142e2565b915091506111218282611e51565b505050565b6000805460ff166111495760405162461bcd60e51b815260040161094e9061429c565b6000805460ff1916905561115b611501565b50610bd782612162565b6000805460ff166111885760405162461bcd60e51b815260040161094e9061429c565b6000805460ff1916905561119a611501565b5050600b546000805460ff1916600117905590565b60035461010090046001600160a01b031633146112245760405162461bcd60e51b815260206004820152602d60248201527f6f6e6c79207468652061646d696e206d6179207365742074686520636f6d702d60448201526c6c696b652064656c656761746560981b606482015260840161094e565b6011546040516317066a5760e21b81526001600160a01b03838116600483015290911690635c19a95c90602401600060405180830381600087803b15801561126b57600080fd5b505af115801561127f573d6000803e3d6000fd5b5050505050565b60006108d58261227d565b600280546107d990614211565b60006108c4826122ce565b60035461010090046001600160a01b031633146113145760405162461bcd60e51b8152602060048201526024808201527f6f6e6c792061646d696e206d617920696e697469616c697a6520746865206d616044820152631c9ad95d60e21b606482015260840161094e565b6009541580156113245750600a54155b61137c5760405162461bcd60e51b815260206004820152602360248201527f6d61726b6574206d6179206f6e6c7920626520696e697469616c697a6564206f6044820152626e636560e81b606482015260840161094e565b6007849055836113e75760405162461bcd60e51b815260206004820152603060248201527f696e697469616c2065786368616e67652072617465206d75737420626520677260448201526f32b0ba32b9103a3430b7103d32b9379760811b606482015260840161094e565b60006113f287610f32565b905080156114425760405162461bcd60e51b815260206004820152601a60248201527f73657474696e6720636f6d7074726f6c6c6572206661696c6564000000000000604482015260640161094e565b43600955670de0b6b3a7640000600a5561145b8661231a565b905080156114b65760405162461bcd60e51b815260206004820152602260248201527f73657474696e6720696e7465726573742072617465206d6f64656c206661696c604482015261195960f21b606482015260840161094e565b60016114c28582614357565b5060026114cf8482614357565b50506003805460ff90921660ff199283161790556000805490911660011790555050505050565b60006108d58261248f565b60145460408051634fb3c66560e11b815290516000926001600160a01b031691639f678cca916004808301926020929190829003018187875af115801561154c573d6000803e3d6000fd5b505050506040513d601f19601f82011682018060405250810190611570919061424b565b50610bf56124ce565b6000805460ff1661159c5760405162461bcd60e51b815260040161094e9061429c565b6000805460ff191681556115b233808686611a60565b1490506000805460ff1916600117905592915050565b6006546000906001600160a01b031663b81688166115e4611cfe565b600b54600c546008546040516001600160e01b031960e087901b16815260048101949094526024840192909252604483015260648201526084015b602060405180830381865afa15801561163c573d6000803e3d6000fd5b505050506040513d601f19601f82011682018060405250810190610bf5919061424b565b6000805460ff166116835760405162461bcd60e51b815260040161094e9061429c565b6000805460ff19169055611699338585856126bb565b50600080805460ff191660011790559392505050565b60035460009061010090046001600160a01b031633146116e257604051635cb56c2b60e01b815260040160405180910390fd5b600480546001600160a01b038481166001600160a01b031983168117909355604080519190921680825260208201939093527fca4f2f25d0898edd99413412fb94012f9e54ec8142f9b093e7720646a95b16a99101611073565b6000805460ff1661175f5760405162461bcd60e51b815260040161094e9061429c565b6000805460ff19169055611771611501565b5061177a610beb565b90506000805460ff1916600117905590565b6001600160a01b0381166000908152600e602052604081205481908190819081906117b6876122ce565b6117be6119f8565b93509350935093509193509193565b60006108d582612933565b60006108d582612972565b6004546000906001600160a01b0316331415806117fe575033155b1561181c57604051631ba24f2960e21b815260040160405180910390fd5b60038054600480546001600160a01b03808216610100818102610100600160a81b0319871617968790556001600160a01b031990931690935560408051948390048216808652929095041660208401529290917ff9ffabca9c8276e99321725bcb43fb076a6c66a54b7f21c4e8146d8519b417dc910160405180910390a1600454604080516001600160a01b03808516825290921660208301527fca4f2f25d0898edd99413412fb94012f9e54ec8142f9b093e7720646a95b16a9910160405180910390a160009250505090565b60006118f4611501565b506108c48261231a565b600061190b8484846129b3565b5060009392505050565b6006546000906001600160a01b03166315f24053611931611cfe565b600b54600c546040516001600160e01b031960e086901b16815260048101939093526024830191909152604482015260640161161f565b6000805460ff1661198b5760405162461bcd60e51b815260040161094e9061429c565b6000805460ff1916905561199d611501565b50610bd782612a91565b60005460ff166119c95760405162461bcd60e51b815260040161094e9061429c565b6000805460ff191690556119db611501565b506119e7333383612b4d565b50506000805460ff19166001179055565b600d54600090808203611a0d57505060075490565b6000611a17611cfe565b90506000600c54600b5483611a2c9190614417565b611a36919061442a565b9050600083611a4d670de0b6b3a76400008461443d565b611a57919061427a565b95945050505050565b6005546040516317b9b84b60e31b81523060048201526001600160a01b038581166024830152848116604483015260648201849052600092839291169063bdcdc258906084016020604051808303816000875af1158015611ac5573d6000803e3d6000fd5b505050506040513d601f19601f82011682018060405250810190611ae9919061424b565b90508015611b0d5760405163089d427760e11b81526004810182905260240161094e565b836001600160a01b0316856001600160a01b031603611b3f57604051638cd22d1960e01b815260040160405180910390fd5b6000856001600160a01b0316876001600160a01b031603611b635750600019611b8b565b506001600160a01b038086166000908152600f60209081526040808320938a16835292905220545b6000611b97858361442a565b6001600160a01b0388166000908152600e602052604081205491925090611bbf90879061442a565b6001600160a01b0388166000908152600e602052604081205491925090611be7908890614417565b6001600160a01b03808b166000908152600e6020526040808220869055918b1681522081905590506000198414611c41576001600160a01b03808a166000908152600f60209081526040808320938e168352929052208390555b876001600160a01b0316896001600160a01b03166000805160206144db83398151915289604051611c7491815260200190565b60405180910390a35060009998505050505050505050565b60005460ff16611cae5760405162461bcd60e51b815260040161094e9061429c565b6000805460ff19169055611cc0611501565b50611ccc338383612b4d565b50506000805460ff1916600117905550565b600080611ceb8484612cf6565b9050611cf681612d27565b949350505050565b6014546040516305f5d64360e11b81523060048201526000916001600160a01b03169082908290630bebac8690602401602060405180830381865afa158015611d4b573d6000803e3d6000fd5b505050506040513d601f19601f82011682018060405250810190611d6f919061424b565b90506b033b2e3c9fd0803ce8000000611de9836001600160a01b031663c92aecc46040518163ffffffff1660e01b8152600401602060405180830381865afa158015611dbf573d6000803e3d6000fd5b505050506040513d601f19601f82011682018060405250810190611de3919061424b565b83612d3f565b611df3919061427a565b9250505090565b6000805460ff16611e1d5760405162461bcd60e51b815260040161094e9061429c565b6000805460ff19169055611e2f611501565b50611e3982612d9e565b5050600090506000805460ff19166001179055919050565b600082905060008290506000826001600160a01b031663f4b9fa756040518163ffffffff1660e01b81526004016020604051808303816000875af1158015611e9d573d6000803e3d6000fd5b505050506040513d601f19601f82011682018060405250810190611ec19190614454565b90506000836001600160a01b03166336569e776040518163ffffffff1660e01b81526004016020604051808303816000875af1158015611f05573d6000803e3d6000fd5b505050506040513d601f19601f82011682018060405250810190611f299190614454565b6011549091506001600160a01b03838116911614611f945760405162461bcd60e51b815260206004820152602260248201527f444149206d757374206265207468652073616d6520617320756e6465726c79696044820152616e6760f01b606482015260840161094e565b601380546001600160a01b03199081166001600160a01b03898116918217909355601480548316898516179055601580549092168484161790915560405163095ea7b360e01b8152600481019190915260001960248201529083169063095ea7b390604401600060405180830381600087803b15801561201357600080fd5b505af1158015612027573d6000803e3d6000fd5b50506014546040516328ec8bf160e21b81526001600160a01b039182166004820152908416925063a3b22fc49150602401600060405180830381600087803b15801561207257600080fd5b505af1158015612086573d6000803e3d6000fd5b50506013546040516328ec8bf160e21b81526001600160a01b039182166004820152908416925063a3b22fc49150602401600060405180830381600087803b1580156120d157600080fd5b505af11580156120e5573d6000803e3d6000fd5b50505050826001600160a01b0316639f678cca6040518163ffffffff1660e01b81526004016020604051808303816000875af1158015612129573d6000803e3d6000fd5b505050506040513d601f19601f8201168201806040525081019061214d919061424b565b50612159306000612e32565b50505050505050565b600354600090819061010090046001600160a01b0316331461219757604051630f7e5e6d60e41b815260040160405180910390fd5b43600954146121b957604051630dff50cb60e41b815260040160405180910390fd5b826121c2611cfe565b10156121e157604051633345e99960e01b815260040160405180910390fd5b600c54831115612204576040516378d2980560e11b815260040160405180910390fd5b82600c54612212919061442a565b600c8190556003549091506122359061010090046001600160a01b031684613135565b7f3bad0c59cf2f06e7314077049f48a93578cd16f5ef92329f1dab1420a99c177e600360019054906101000a90046001600160a01b0316848360405161107393929190614471565b60005460ff1661229f5760405162461bcd60e51b815260040161094e9061429c565b6000805460ff191690556122b1611501565b506122be3360008361326b565b506000805460ff19166001179055565b6001600160a01b0381166000908152601060205260408120805482036122f75750600092915050565b600a5481546000916123089161443d565b9050816001015481611cf6919061427a565b600354600090819061010090046001600160a01b0316331461234f5760405163407fded560e01b815260040160405180910390fd5b436009541461237157604051630be2a5cb60e11b815260040160405180910390fd5b600660009054906101000a90046001600160a01b03169050826001600160a01b0316632191f92a6040518163ffffffff1660e01b8152600401602060405180830381865afa1580156123c7573d6000803e3d6000fd5b505050506040513d601f19601f820116820180604052508101906123eb91906142c0565b6124375760405162461bcd60e51b815260206004820152601c60248201527f6d61726b6572206d6574686f642072657475726e65642066616c736500000000604482015260640161094e565b600680546001600160a01b0319166001600160a01b0385811691821790925560408051928416835260208301919091527fedffc32e068c7c95dfd4bdfd5c4d939a084d6b11c4199eac8436ed234d72f9269101611073565b60005460ff166124b15760405162461bcd60e51b815260040161094e9061429c565b6000805460ff191690556124c3611501565b506122be3382613548565b60095460009043908181036124e65760009250505090565b60006124f0611cfe565b600b54600c54600a546006546040516315f2405360e01b81526004810186905260248101859052604481018490529495509293919290916000916001600160a01b0316906315f2405390606401602060405180830381865afa15801561255a573d6000803e3d6000fd5b505050506040513d601f19601f8201168201806040525081019061257e919061424b565b905065048c273950008111156125d65760405162461bcd60e51b815260206004820152601c60248201527f626f72726f772072617465206973206162737572646c79206869676800000000604482015260640161094e565b60006125e2878961442a565b905060006125fe60405180602001604052808581525083612cf6565b9050600061260c8288611cde565b9050600061261a8883614417565b905060006126396040518060200160405280600854815250848a6136fe565b9050600061264885898a6136fe565b60098e9055600a819055600b849055600c839055604080518d815260208101879052908101829052606081018590529091507f4dec04e750ca11537cabcd8a9eab06494de08da3735bc8871cd41250e190bc049060800160405180910390a160009d505050505050505050505050505090565b60055460405163d02f735160e01b81523060048201526001600160a01b0386811660248301528581166044830152848116606483015260848201849052600092169063d02f73519060a4016020604051808303816000875af1158015612725573d6000803e3d6000fd5b505050506040513d601f19601f82011682018060405250810190612749919061424b565b9050801561276d576040516363e00e3360e11b81526004810182905260240161094e565b836001600160a01b0316836001600160a01b03160361279f57604051633a94626760e11b815260040160405180910390fd5b60006127c0836040518060200160405280666379da05b6000081525061371f565b905060006127ce828561442a565b9050600060405180602001604052806127e56119f8565b9052905060006127f58285611cde565b9050600081600c546128079190614417565b600c819055600d5490915061281d90869061442a565b600d556001600160a01b0388166000908152600e602052604090205461284490889061442a565b6001600160a01b03808a166000908152600e602052604080822093909355908b1681522054612874908590614417565b6001600160a01b03808b166000818152600e602052604090819020939093559151908a16906000805160206144db833981519152906128b69088815260200190565b60405180910390a360405185815230906001600160a01b038a16906000805160206144db8339815191529060200160405180910390a37fa91e67c5ea634cd43a12c5a482724b03de01e85ca68702a53d0c2f45cb7c1dc530838360405161291f93929190614471565b60405180910390a150505050505050505050565b60005460ff166129555760405162461bcd60e51b815260040161094e9061429c565b6000805460ff19169055612967611501565b506122be3382613742565b60005460ff166129945760405162461bcd60e51b815260040161094e9061429c565b6000805460ff191690556129a6611501565b506122be3382600061326b565b60005460ff166129d55760405162461bcd60e51b815260040161094e9061429c565b6000805460ff191690556129e7611501565b506000816001600160a01b031663a6afed956040518163ffffffff1660e01b81526004016020604051808303816000875af1158015612a2a573d6000803e3d6000fd5b505050506040513d601f19601f82011682018060405250810190612a4e919061424b565b90508015612a7257604051633eea49b760e11b81526004810182905260240161094e565b612a7e338585856138e1565b50506000805460ff191660011790555050565b60035460009061010090046001600160a01b03163314612ac457604051631205b57b60e11b815260040160405180910390fd5b4360095414612ae657604051637dfca6b760e11b815260040160405180910390fd5b670de0b6b3a7640000821115612b0f5760405163717220f360e11b815260040160405180910390fd5b600880549083905560408051828152602081018590527faaa68312e2ea9d50e16af5068410ab56e1a1fd06037b1a35664812c30f8214609101611073565b600554604051631200453160e11b81523060048201526001600160a01b03858116602483015284811660448301526064820184905260009283929116906324008a62906084016020604051808303816000875af1158015612bb2573d6000803e3d6000fd5b505050506040513d601f19601f82011682018060405250810190612bd6919061424b565b90508015612bfa57604051638c81362d60e01b81526004810182905260240161094e565b4360095414612c1c5760405163c9021e2f60e01b815260040160405180910390fd5b6000612c27856122ce565b905060006000198514612c3a5784612c3c565b815b90506000612c4a8883612e32565b90506000612c58828561442a565b9050600082600b54612c6a919061442a565b6001600160a01b038a8116600081815260106020908152604091829020878155600a54600190910155600b8590558151938f168452830191909152810185905260608101849052608081018290529091507f1a2a22cb034d26d1854bdc6666a5b91fe25efbbb5dcad3b0355478d6f5c362a19060a00160405180910390a1509098975050505050505050565b6040805160208101909152600081526040518060200160405280612d1e856000015185613d9b565b90529392505050565b80516000906108c490670de0b6b3a76400009061427a565b6000811580612d6357508282612d55818361443d565b9250612d61908361427a565b145b6108c45760405162461bcd60e51b815260206004820152600c60248201526b6d756c2d6f766572666c6f7760a01b604482015260640161094e565b60008080804360095414612dc8576040516338acf79960e01b81526004810182905260240161094e565b612dd23386612e32565b905080600c54612de29190614417565b915081600c819055507fa91e67c5ea634cd43a12c5a482724b03de01e85ca68702a53d0c2f45cb7c1dc5338284604051612e1e93929190614471565b60405180910390a160009590945092505050565b6011546040516323b872dd60e01b81526000916001600160a01b031690819081906323b872dd90612e6b90889030908990600401614492565b6020604051808303816000875af1158015612e8a573d6000803e3d6000fd5b505050506040513d601f19601f82011682018060405250810190612eae91906142c0565b612f065760405162461bcd60e51b8152602060048201526024808201527f756e6578706563746564204549502d3230207472616e7366657220696e2072656044820152633a3ab93760e11b606482015260840161094e565b6013546014546015546040516370a0823160e01b815230600482018190526001600160a01b039485169487948116938116928692633b4da69f929091908716906370a0823190602401602060405180830381865afa158015612f6c573d6000803e3d6000fd5b505050506040513d601f19601f82011682018060405250810190612f90919061424b565b6040516001600160e01b031960e085901b1681526001600160a01b0390921660048301526024820152604401600060405180830381600087803b158015612fd657600080fd5b505af1158015612fea573d6000803e3d6000fd5b5050604051633612d9a360e11b8152306004820152600092506001600160a01b0384169150636c25b34690602401602060405180830381865afa158015613035573d6000803e3d6000fd5b505050506040513d601f19601f82011682018060405250810190613059919061424b565b90506000836001600160a01b031663c92aecc46040518163ffffffff1660e01b8152600401602060405180830381865afa15801561309b573d6000803e3d6000fd5b505050506040513d601f19601f820116820180604052508101906130bf919061424b565b6130c9908361427a565b60405163049878f360e01b8152600481018290529091506001600160a01b0385169063049878f390602401600060405180830381600087803b15801561310e57600080fd5b505af1158015613122573d6000803e3d6000fd5b509b9d9c50505050505050505050505050565b6013546014546040805163324abb3160e21b815290516001600160a01b0393841693909216916000916131d991849163c92aecc49160048083019260209291908290030181865afa15801561318e573d6000803e3d6000fd5b505050506040513d601f19601f820116820180604052508101906131b2919061424b565b6131c8866b033b2e3c9fd0803ce8000000612d3f565b6131d2919061427a565b6001613da7565b604051637f8661a160e01b8152600481018290529091506001600160a01b03831690637f8661a190602401600060405180830381600087803b15801561321e57600080fd5b505af1158015613232573d6000803e3d6000fd5b505060405163ef693bed60e01b81526001600160a01b038881166004830152602482018890528616925063ef693bed9150604401610b5f565b811580613276575080155b6132df5760405162461bcd60e51b815260206004820152603460248201527f6f6e65206f662072656465656d546f6b656e73496e206f722072656465656d416044820152736d6f756e74496e206d757374206265207a65726f60601b606482015260840161094e565b600060405180602001604052806132f46119f8565b9052905060008084156133155784915061330e8386611cde565b9050613325565b61331f8484613df4565b91508390505b60055460405163eabe7d9160e01b81526000916001600160a01b03169063eabe7d919061335a9030908b908890600401614492565b6020604051808303816000875af1158015613379573d6000803e3d6000fd5b505050506040513d601f19601f8201168201806040525081019061339d919061424b565b905080156133c15760405163480f424760e01b81526004810182905260240161094e565b43600954146133e3576040516397b5cfcd60e01b815260040160405180910390fd5b816133ec611cfe565b101561340b576040516391240a1b60e01b815260040160405180910390fd5b82600d54613419919061442a565b600d556001600160a01b0387166000908152600e602052604090205461344090849061442a565b6001600160a01b0388166000908152600e60205260409020556134638783613135565b60405183815230906001600160a01b038916906000805160206144db8339815191529060200160405180910390a37fe5b754fb1abb7f01b499791d0b820ae3b6af3424ac1c59768edb53f4ec31a9298783856040516134c493929190614471565b60405180910390a16005546040516351dff98960e01b81523060048201526001600160a01b0389811660248301526044820185905260648201869052909116906351dff98990608401600060405180830381600087803b15801561352757600080fd5b505af115801561353b573d6000803e3d6000fd5b5050505050505050505050565b600554604051634ef4c3e160e01b81526000916001600160a01b031690634ef4c3e19061357d90309087908790600401614492565b6020604051808303816000875af115801561359c573d6000803e3d6000fd5b505050506040513d601f19601f820116820180604052508101906135c0919061424b565b905080156135e4576040516349abd4fd60e01b81526004810182905260240161094e565b4360095414613606576040516338d8859760e01b815260040160405180910390fd5b6000604051806020016040528061361b6119f8565b90529050600061362b8585612e32565b905060006136398284613df4565b905080600d546136499190614417565b600d556001600160a01b0386166000908152600e6020526040902054613670908290614417565b6001600160a01b0387166000908152600e60205260409081902091909155517f4c209b5fc8ad50758f13e2e1088ba56a560dff690a1c6fef26394f4c03821c4f906136c090889085908590614471565b60405180910390a16040518181526001600160a01b0387169030906000805160206144db8339815191529060200160405180910390a3505050505050565b60008061370b8585612cf6565b9050611a5761371982612d27565b84613e12565b6000670de0b6b3a7640000613738848460000151613d9b565b610f16919061427a565b60055460405163368f515360e21b81526000916001600160a01b03169063da3d454c9061377790309087908790600401614492565b6020604051808303816000875af1158015613796573d6000803e3d6000fd5b505050506040513d601f19601f820116820180604052508101906137ba919061424b565b905080156137de5760405163918db40f60e01b81526004810182905260240161094e565b436009541461380057604051630e8d8c6160e21b815260040160405180910390fd5b81613809611cfe565b1015613828576040516348c2588160e01b815260040160405180910390fd5b6000613833846122ce565b905060006138418483614417565b9050600084600b546138539190614417565b6001600160a01b0387166000908152601060205260409020838155600a54600190910155600b81905590506138888686613135565b604080516001600160a01b038816815260208101879052908101839052606081018290527f13ed6866d4e1ee6da46f845c46d7e54120883d75c5ea9a2dacc1c4ca8984ab809060800160405180910390a1505050505050565b600554604051632fe3f38f60e11b81523060048201526001600160a01b03838116602483015286811660448301528581166064830152608482018590526000921690635fc7e71e9060a4016020604051808303816000875af115801561394b573d6000803e3d6000fd5b505050506040513d601f19601f8201168201806040525081019061396f919061424b565b9050801561399357604051630a14d17960e11b81526004810182905260240161094e565b43600954146139b5576040516380965b1b60e01b815260040160405180910390fd5b43826001600160a01b0316636c540baf6040518163ffffffff1660e01b8152600401602060405180830381865afa1580156139f4573d6000803e3d6000fd5b505050506040513d601f19601f82011682018060405250810190613a18919061424b565b14613a3657604051631046f38d60e31b815260040160405180910390fd5b846001600160a01b0316846001600160a01b031603613a6857604051631bd1a62160e21b815260040160405180910390fd5b82600003613a895760405163d29da7ef60e01b815260040160405180910390fd5b6000198303613aab57604051635982c5bb60e11b815260040160405180910390fd5b6000613ab8868686612b4d565b60055460405163c488847b60e01b815291925060009182916001600160a01b03169063c488847b90613af290309089908890600401614492565b6040805180830381865afa158015613b0e573d6000803e3d6000fd5b505050506040513d601f19601f82011682018060405250810190613b3291906144b6565b9150915060008214613ba25760405162461bcd60e51b815260206004820152603360248201527f4c49515549444154455f434f4d5054524f4c4c45525f43414c43554c4154455f604482015272105353d5539517d4d152569157d19052531151606a1b606482015260840161094e565b6040516370a0823160e01b81526001600160a01b0388811660048301528291908716906370a0823190602401602060405180830381865afa158015613beb573d6000803e3d6000fd5b505050506040513d601f19601f82011682018060405250810190613c0f919061424b565b1015613c5d5760405162461bcd60e51b815260206004820152601860248201527f4c49515549444154455f5345495a455f544f4f5f4d5543480000000000000000604482015260640161094e565b306001600160a01b03861603613c7e57613c79308989846126bb565b613d38565b60405163b2a02ff160e01b81526000906001600160a01b0387169063b2a02ff190613cb1908c908c908790600401614492565b6020604051808303816000875af1158015613cd0573d6000803e3d6000fd5b505050506040513d601f19601f82011682018060405250810190613cf4919061424b565b14613d385760405162461bcd60e51b81526020600482015260146024820152731d1bdad95b881cd95a5e9d5c994819985a5b195960621b604482015260640161094e565b604080516001600160a01b038a811682528981166020830152818301869052871660608201526080810183905290517f298637f684da70674f26509b10f07ec2fbc77a335ab1e7d6215a4b2484d8bb529181900360a00190a15050505050505050565b6000610f16828461443d565b600082613db48382614417565b91508110156108c45760405162461bcd60e51b815260206004820152600c60248201526b6164642d6f766572666c6f7760a01b604482015260640161094e565b6000610f16613e0b84670de0b6b3a7640000613d9b565b8351613e1e565b6000610f168284614417565b6000610f16828461427a565b600060208083528351808285015260005b81811015613e5757858101830151858201604001528201613e3b565b506000604082860101526040601f19601f8301168501019250505092915050565b6001600160a01b0381168114613e8d57600080fd5b50565b60008060408385031215613ea357600080fd5b8235613eae81613e78565b946020939093013593505050565b600060208284031215613ece57600080fd5b5035919050565b600060208284031215613ee757600080fd5b8135610f1681613e78565b634e487b7160e01b600052604160045260246000fd5b600067ffffffffffffffff80841115613f2357613f23613ef2565b604051601f8501601f19908116603f01168101908282118183101715613f4b57613f4b613ef2565b81604052809350858152868686011115613f6457600080fd5b858560208301376000602087830101525050509392505050565b600082601f830112613f8f57600080fd5b610f1683833560208501613f08565b803560ff81168114613faf57600080fd5b919050565b600080600080600080600060e0888a031215613fcf57600080fd5b8735613fda81613e78565b96506020880135613fea81613e78565b95506040880135613ffa81613e78565b945060608801359350608088013567ffffffffffffffff8082111561401e57600080fd5b61402a8b838c01613f7e565b945060a08a013591508082111561404057600080fd5b5061404d8a828b01613f7e565b92505061405c60c08901613f9e565b905092959891949750929550565b60008060006060848603121561407f57600080fd5b833561408a81613e78565b9250602084013561409a81613e78565b929592945050506040919091013590565b6000602082840312156140bd57600080fd5b813567ffffffffffffffff8111156140d457600080fd5b8201601f810184136140e557600080fd5b611cf684823560208401613f08565b60008060008060008060c0878903121561410d57600080fd5b863561411881613e78565b9550602087013561412881613e78565b945060408701359350606087013567ffffffffffffffff8082111561414c57600080fd5b6141588a838b01613f7e565b9450608089013591508082111561416e57600080fd5b5061417b89828a01613f7e565b92505061418a60a08801613f9e565b90509295509295509295565b600080604083850312156141a957600080fd5b82356141b481613e78565b915060208301356141c481613e78565b809150509250929050565b6000806000606084860312156141e457600080fd5b83356141ef81613e78565b925060208401359150604084013561420681613e78565b809150509250925092565b600181811c9082168061422557607f821691505b60208210810361424557634e487b7160e01b600052602260045260246000fd5b50919050565b60006020828403121561425d57600080fd5b5051919050565b634e487b7160e01b600052601160045260246000fd5b60008261429757634e487b7160e01b600052601260045260246000fd5b500490565b6020808252600a90820152691c994b595b9d195c995960b21b604082015260600190565b6000602082840312156142d257600080fd5b81518015158114610f1657600080fd5b600080604083850312156142f557600080fd5b825161430081613e78565b60208401519092506141c481613e78565b601f82111561112157600081815260208120601f850160051c810160208610156143385750805b601f850160051c820191505b81811015610e6a57828155600101614344565b815167ffffffffffffffff81111561437157614371613ef2565b6143858161437f8454614211565b84614311565b602080601f8311600181146143ba57600084156143a25750858301515b600019600386901b1c1916600185901b178555610e6a565b600085815260208120601f198616915b828110156143e9578886015182559484019460019091019084016143ca565b50858210156144075787850151600019600388901b60f8161c191681555b5050505050600190811b01905550565b808201808211156108c4576108c4614264565b818103818111156108c4576108c4614264565b80820281158282048414176108c4576108c4614264565b60006020828403121561446657600080fd5b8151610f1681613e78565b6001600160a01b039390931683526020830191909152604082015260600190565b6001600160a01b039384168152919092166020820152604081019190915260600190565b600080604083850312156144c957600080fd5b50508051602090910151909290915056feddf252ad1be2c89b69c2b068fc378daa952ba7f163c4a11628f55a4df523b3efa2646970667358221220857d7b6916dc891b42fc23b4566d023deba0caa1559b5239d5980355a65299ce64736f6c63430008110033",
  "linkReferences": {},
  "deployedLinkReferences": {}
}